S01B00005553425F756172745F6D616E636865737465722E737265637B
S21408000008390720112A08000D2A08000D2A0800BA
S2140800100D2A08000D2A08000D2A08000000000016
S2140800200000000000000000000000000D2A080084
S2140800300D2A0800000000000D2A08000D2A0800F6
S2140800400D2A08000D2A08000D2A08000D2A0800A7
S2140800500D2A08000D2A08000D2A08000D2A080097
S2140800600D2A08000D2A08000000000039140800B0
S2140800704914080059140800691408000000000014
S21408008000000000512D0800452D08000D2A080024
S2140800900D2A08000D2A08000D2A08000D2A080057
S2140800A00D2A0800000000000D2A08000D2A080086
S2140800B00D2A08000D2A08000D2A08000D2A080037
S2140800C00D2A08000D2A08000D2A08000D2A080027
S2140800D00D2A08000D2A08000D2A08000D2A080017
S2140800E0F51D08000D2A08000D2A08000D2A08002C
S2140800F00D2A080010B5054C237833B9044B13B104
S2140801000448AFF300800123237010BD0C070720B6
S21408011000000000083108000C4B43B10C4810B52D
S2140801200C49AFF300800C48036823B910BD0A4891
S214080130036833B97047094B002BF7D0BDE8104069
S2140801401847064B002BF5D0184700BF00000000E4
S21408015008310800100707200831080000000000D2
S21408016010B5054B054C3B2098475520A04723461D
S214080170BDE81040562018479D1108006111080078
S21408018010B53B20044CA0475520A0472346BDE8A1
S21408019010405620184700BF611108003B20014B4D
S2140801A0184700BF9D11080010B95520034B184783
S2140801B0012801D15620F9E7704700BF9D110800B5
S2140801C010B95520034B1847012801D15620F9E7E6
S2140801D0704700BF61110800704770477047704746
S2140801E07047704710B93B20044B1847B0F57A7F24
S2140801F002D13B20024BF8E7704700BF9D1108006C
S2140802006111080010B5044B9847044B0020984726
S214080210BDE81040024B1847351508007915080048
S2140802208D15080070B50F480F4CA0473E210020DA
S2140802300E4B98470E4DA8470028FCD00D4B984704
S2140802400D4A0E4B0E4D9A62A8470028FCD00D4B5F
S214080250102098470C4B98472346BDE87040014845
S214080260184700BF00BD010581000720BD1408001F
S2140802700515080015150800013F0D2000060E405C
S21408028025150800791408008D2A080082B0EFF3B7
S2140802901083B3FA83F35B09019372B6BFF35F8FDB
S2140802A00022024B1A70019802B07047D402072049
S2140802B0024A1378013BDBB2137070473E070720EB
S2140802C00020704700207047F7B504460C4E0846D5
S2140802D0315D99B90A230B4A0B4F03FB042237F802
S2140802E01450B2F808E0ADB2AE4507D037F814504F
S2140802F01581064D0095064DA847305503B0F0BD4C
S214080300500F072068170720520F0720150308000C
S2140803101D2508000021A2F1860310B45842584152
S2140803200B4B19540B4931F8103023F07C031B048F
S2140803301B0C21F810300A23074903FB00131C89FD
S214080340114624F07C041C8110BC044B184700BFDF
S214080350500F0720520F072068170720C902080009
S21408036008B5064A1378013BDBB213701078044BC5
S21408037098470022034B1A7008BD00BF3F070720A6
S214080380292C08002C07072008B5184B1879821E58
S214080390504250411A7812F0800F02F060020FD0D7
S2140803A0202A14D15A78212A11D1D98807290ED1A2
S2140803B00F4A998102EBC002101A9860012008BD06
S2140803C0202A04D15A78202A03D0222A07D00020CF
S2140803D008BDD9880729FAD1064A1A61E8E7997844
S2140803E0054B01F001019847E8E700BFCC18072045
S2140803F030070720790608003D2C080028B101229E
S214080400024B1A70BFF35F8F62B67047D40207209C
S2140804102DE9F04F3C4B85B01A5C04460293002A3F
S21408042065D13A4FB847DFF8109139F8145020B321
S214080430374B984785425AD0364B98473649374BFC
S2140804400D5D6600EDB2721933F8122083460391EB
S2140804509846DFF8E8A0CAB9BAF800200132AAF828
S2140804600020B84758B9BAF80020632A07D8584673
S21408047005B0BDE8F04FFFF7C1BF294BD9E7B8472D
S21408048020B1BAF80020B2F5487FF0D30022254BF9
S214080490AAF800201B5D6BBBB5FA85F3039A5B09C7
S2140804A013550123029A584613551F4B984773193C
S2140804B038F81330B3F5007F14BF4FF0010A4FF039
S2140804C0000A1DD0B847C8B1114B984729F8140040
S2140804D0164A354438F815300092154A012C02EBB6
S2140804E0452251460CBF84208120124CA04705B0F7
S2140804F0BDE8F08FB5FA85F56D09D2E7084BE4E755
S214080500002329F81430E3E766170720D5220800E9
S214080510312308008D0208006017072058170720A7
S21408052021230800560F0720FD0308004105080090
S214080530580F07201D250800621707202A070720DE
S214080540A2F184035A425A4178B9084B995C530081
S214080550002908BF0133064921F81300054B9854B3
S214080560054B98541046054B1847704760170720E8
S21408057058170720560F072066170720110408008B
S21408058010B5064C064B2078984723780133DBB223
S214080590012B88BF0023237010BD00BF2807072043
S2140805A01104080070B504460C4B164698470C4DC7
S2140805B035F814309BB271B143EA0602094B25F8A8
S2140805C014209847012C2046BDE870400CBF8621B1
S2140805D08321054B184723EA0602EFE78D02080039
S2140805E0520F0720FD030800C902080070B51C4D0D
S2140805F00A212B78A126022B84BF00232B70002308
S2140806002C781848E4B26143174A465422F8143046
S21408061042182021012C517014BF194602219180DE
S2140806200221402611485380D1801381C4EBC402AE
S214080630811886544222CB704A700B710F224B7178
S214080640082320468B718A70094B98472046094B29
S214080650984718B12B780133DBB22B7070BD00BFFA
S2140806603E07072068170720520F07203007072085
S214080670A12D0800112C0800054B06491879831E81
S2140806805842584101EBC001091A034B184700BFEE
S214080690CC18072030070720A12D080010220121BA
S2140806A0004B1847A505080040220121004B1847B3
S2140806B0A505080010B50446084B9847084B094A94
S2140806C033F81410084B89B21B5D03EB440332F869
S2140806D01340064B9847A4B2601A10BD8D02080056
S2140806E04A0F0720400F0720480F0720FD03080081
S2140806F008B5034B9847003018BF012008BD00BF57
S214080700B50608002DE9F3470446224B9847224FC2
S214080710DFF8A4E081461EF804503B5DEDB203F016
S214080720FF081E496BB9DFF894C066001C4B06EB41
S214080730050A3CF8142033F81A3092B29BB29A4253
S21408074005D248468847002002B0BDE8F087B5FACB
S21408075085F35B092CF814800EF8043001233B550A
S214080760884720460F4B984710B120460E4B9847AF
S2140807700E4B0F4A012C3544009302EB45224FF4EA
S21408078000734FF001010CBF05200220094CA0475A
S214080790DAE700BF8D0208004E0F0720FD030800A9
S2140807A0400F0720F10608005D2D080065080800C0
S2140807B0400707201D250800480F07204A0F072076
S2140807C0F8B51B4E002533781A4A022B84BF00233F
S2140807D033703478184BE4B21D55184BA7001D55D6
S2140807E0174B22F824501D55164B3A4423F814503C
S2140807F02046154B55809847144B20461D55144BDC
S2140808001D55144B23F824503B445D80124B23F8A7
S2140808101450124B984748B133780133DBB2337023
S2140808203378022B02BF01220D4B1A70F8BD00BFA9
S2140808303F0707205817072066170720560F072078
S2140808406017072062170720110408004E0F0720BC
S214080850480F0720400F07204A0F07200507080003
S2140808602C070720531F37B55C4215465C4190B9E4
S214080870104B1A5DB2FA82F362005B0969B91A4432
S2140808800D490E4B01EB4222009301214FF40073F1
S21408089028460B4CA04703B030BD1A44094B89B212
S2140808A023F81210084B18552046084B03B0BDE82D
S2140808B030401847480F07204007072065080800FB
S2140808C01D250800400F07204E0F072005070800C3
S2140808D02DE9F84F81464FF0000B1D4BC0EBC002C8
S2140808E013449D791B4FA5F109035D421A4EDFF8A4
S2140808F080805D41B84736F8191018F809A0174BDC
S2140809000AEB490A33F81A40154B89B29847A4B23D
S214080910A14208D3134B1B7803F0FF04002BE9D140
S2140809202046BDE8F88F104B484603EB4A2A1AF8CB
S2140809300140013189B20D4B44EA0B0426F8191020
S2140809409847002DECD04FEA042B0025D2E700BFCD
S214080950300707208D0208004A0F0720400F07209F
S214080960FD0308002C070720400707200507080096
S214080970480F0720F8B5114B01469847104A114C06
S214080980535CDBB203EB410534F81540B4F5007F41
S2140809900ED10D4D6D5C5DB90C4D6E5C06F0FF0713
S2140809A036B90124B3FA83F36C543C465B095354B6
S2140809B0074B9847C4F50070F8BD00BF8D020800C5
S2140809C0601707205817072066170720560F0720B6
S2140809D0FD03080008B5034B9847003018BF0120F0
S2140809E008BD00BF750908002DE9F84304460E4601
S2140809F0184BC0EBC00213449D79174FA5F10903A5
S214080A005D42DFF86880DFF868905D412046B847A9
S214080A1038B9124B1B7803F0FF00002BF6D1BDE85F
S214080A20F883C04719F804300D4A03EB440332F83C
S214080A30131001F1010E22F813E00A4A02EB4323D1
S214080A405E54094B984715B136120025DEE701209B
S214080A50BDE8F88330070720D50908002C070720CB
S214080A6058170720580F0720FD0308008D020800B6
S214080A7060170720024B9878024B00F07F00184753
S214080A80CC180720E922080070B5134B1B780BB961
S214080A90002070BD114B1B681B681A798242F7D973
S214080AA000240F4A13605D881D449D4203D8002C1D
S214080AB0EED01360ECE75E78042E09D19E78864265
S214080AC006D1DE788E4203D104B11360012070BDD2
S214080AD01C7823440124E8E7841707208817072092
S214080AE08C170720084B1B681B685A881A4403781B
S214080AF01844904201D3002004E04378042BFAD02F
S214080B00052BF4D1704700BF881707202DE9F04160
S214080B100E4B0546984768B10D4B0E4F1C680E4E97
S214080B202046B847044640B18288C1788078B047E6
S214080B300028F5D10020BDE8F081084B1B685B68EB
S214080B4053F82530BDE8F0411B681847890A0800A5
S214080B508C170720E50A0800DD25080088170720F7
S214080B602DE9F0410021124C0546A04718B900258A
S214080B702846BDE8F0810F4B1B685B6853F8256074
S214080B80F368984701462846A04705460028EED051
S214080B90094BDFF82C801C68084F2046C0470446DF
S214080BA010B18078B847F8E773689847E0E700BF61
S214080BB0890A0800881707208C1707204D23080085
S214080BC0E50A0800004B18472D1C0800F8B50A4C23
S214080BD022784AB10025094E094F3368E8B21B68E7
S214080BE001351B79834205D8002301222370054B63
S214080BF01A80F8BDB847F0E784170720881707203B
S214080C00610B08007C17072038B50A4B1B783BB1E8
S214080C100024094D2A6813681979E3B2994200D866
S214080C2038BD526852F823301B6903B1984701341F
S214080C30F0E700BF841707208817072000232DE950
S214080C40F0419A4CA3812361636123785AB2002A43
S214080C5005DAE18819B900252846BDE8F08113F0C1
S214080C60600140F07E81002A80F2DF80E588002D52
S214080C7000F0778113F01F0340F09E806378062B00
S214080C800DD0082B00F09080002B40F06A81022DD2
S214080C9040F06C8129468648864B984739E0638839
S214080CA0DDB21B0A013B0E2B00F25B81DFE813F076
S214080CB00F001A005F00590159013A003F00590118
S214080CC059015901590159015901590158007A4BDE
S214080CD09847784B794A18B990680178984713E08E
S214080CE01068FAE7744B9847744BA0B19A68527C20
S214080CF0AA4240F236811B6953F835006D4B41888D
S214080D0098470222A3685A70E388A2899A4288BF45
S214080D10A3810125A0E71A68527CAA4240F22181E5
S214080D205B68E9E7654BD8680178624BD6E7624BA3
S214080D309847624B68B99A68527CAA4240F2118179
S214080D401B6953F835005B4B41889847A368072210
S214080D50D9E71A68527CAA4240F203815B68F0E73A
S214080D60564B5869002800F001814188DDE7ADB28E
S214080D70012D00F07F8114D3022D40F0F28013215C
S214080D804F48504B02461E4612F8015B23F8025F96
S214080D90151AEDB28D42F7D3490002313170494831
S214080DA0C3E704214848C0E7012D40F0DF80294604
S214080DB04648404B98474FE7012B24D163780A2BC7
S214080DC040F0CF80012D40F03481404B1B78002B3B
S214080DD000F02F813E4B26791F683B681B79B3428B
S214080DE040F2278130463B4B98470546002800F0DE
S214080DF0B8807B6853F82630DB689847364B012165
S214080E0018701846D5E7022B40F0AB806378002BA5
S214080E1040F0A780022D40F0A980304B20799847F3
S214080E202F4B29461880184636E713F01F0340F064
S214080E30C8806378013B082B00F29380DFE803F054
S214080E400C911A91059191915E00E388002B40F071
S214080E508D80244B23615CE7E388002B40F0868076
S214080E606588012D40F08280114A138823F002031A
S214080E701380F1E6E388002B78D16388022B70D1C3
S214080E800D4B9847054600286BD02379002B68D170
S214080E90154B9847A3881B0A013B032B61D8DFE84C
S214080EA003F00227292B114B2361D5E6CC1807201F
S214080EB07C17072041230800D52208000C010720CC
S214080EC0C002072084020720AC02072084170720E8
S214080ED088170720890A080080170720A12308001A
S214080EE07E170720750A0800CD0B0800152808008D
S214080EF0624BD9E7624BD7E7624BD5E7E388002B0E
S214080F0034D1614B984700282BD0604DA847604FD6
S214080F10A278002851D0BB685B7C9A4221DC5D4BE6
S214080F2098475D4EA3783370002B3FF4F2AEA8477F
S214080F306FF060423378594D134400283FD03A6921
S214080F40002602EBC303564F2B602B68F0B21B68D3
S214080F501B7983427FF6DDAE0021B84701360028AC
S214080F60F3D1237803F01F03012B62D0237803F014
S214080F701F03022B7FF46FAE474B1B78002B3FF402
S214080F806AAE0026454FDFF82C813B68F4B21A6833
S214080F901279A2427FF65FAE5B6853F82450EB687E
S214080FA0984701462046C04700283FF454AEAB6831
S214080FB0984701360028E8D0ABE63B68ACE77A6885
S214080FC0BEE7012B18D163780B2BCAD1E388002B18
S214080FD02FD1314B1B78002B2BD02579314B284647
S214080FE0668898470028BCD0F1B228462C4B98470C
S214080FF000287FF48EAEB4E7022BB2D16378012BBB
S2140810000DD0032BADD1E388002BAFD16388002B1E
S214081010ACD12079244B98472079244B07E0E38805
S214081020002BA3D16388002BA0D12079204B9847AA
S214081030DEE7194B1B78002B98D0184B25791E68CD
S21408104033681B79AB4291D900212846194FB84717
S21408105000288BD0736853F82560F36898470146D4
S2140810602846B847002881D0B368984700287FF4F8
S21408107050AE7BE70F21104883E600BF31280800F2
S2140810804D2808006128080011230800D52208000A
S2140810900C010720CD0B08008417072088170720A7
S2140810A00D0B0800610B08009D270800B5230800F3
S2140810B065240800890A0800B00207204FF4004299
S2140810C01F4B10B50B205A601E4CA0470C20A0479B
S2140810D00D20A0470E20A0471B4C4FF060513B2028
S2140810E0A0474FF060515520A0474FF0605156205A
S2140810F0A04716496820A04715495C20A047154B0D
S214081100154A4FF44071154898474FF000610A2079
S214081110A0474FF000610B20A0474FF000610C205D
S214081120A0474FF000610D20A0474FF000612B202C
S214081130A0472346BDE810404FF000612A20184714
S214081140501A0E4059150800A51208007900002804
S214081150010000286913080001000008000E0E4070
S2140811602DE9F04105460024094E0A4FDFF828808D
S214081170A359AB4205D133195B682846012B05D124
S214081180C0470834202CF3D1BDE8F081B847F8E70B
S214081190803008006F120800891208002DE9F04117
S2140811A005460024094E0A4FDFF82880A359AB42AB
S2140811B005D133195B682846012B05D1C04708348A
S2140811C0202CF3D1BDE8F081B847F8E78030080056
S2140811D0891208006F120800B1F1805F426417D0C8
S2140811E005D819B1B1F1006F0BD042607047B1F164
S2140811F0405FFBD0B1F1605FF8D0B1F1205FF4D169
S2140812007047036F016F0B4023EA02030367ECE79E
S214081210036F1343FAE7D30741644CBF4166016680
S21408122012F00A0F14BF01624162930704D5C0F892
S2140812308010416101607047130748BFC0F88410EA
S214081240F7E710B5029C41643CB141663BB10165C5
S2140812503AB101630161016010BD0166F6E74165B8
S214081260F6E74163F6E7C06C7047806C704701226A
S214081270430903F5001303F2077300F01F005B022F
S21408128002FA00F0186370470122430903F50013B9
S21408129003F2077300F01F005B0202FA00F05863BF
S2140812A070470000F7B545090E4605F5001501F02C
S2140812B0F04105F20775B1F1205F4FEA452542D0A7
S2140812C007D8B1F1006F1ED0B1F1805F2BD0002097
S2140812D027E0B1F1405F02D0B1F1605FF7D1012499
S2140812E006F0605200F01F0102F1484006EA0403C7
S2140812F0424200934241C6F38003284604FA01F1AD
S214081300164DA84728E0012700F01F0407FA04F442
S21408131028462246124B98473846F6074CBF6C6656
S2140813202C6603B0F0BD00F01F01012000FA01F1A1
S21408133069642B6FF40743EA01032B6769604CBFA7
S21408134069662966EDE7012400F01F01324604FAB3
S21408135001F12846034B98472046E2E74312080067
S214081360D91108001712080002F0F043B3F1205F05
S21408137073B504460D4616462FD007D8B3F1006F4E
S2140813801AD0B3F1805F22D000201EE0B3F1405F90
S21408139002D0B3F1605FF7D106F0605202F148411F
S2140813A006F001034A4200934A412046C6F38003EA
S2140813B029460B4CA04707E00A461946094B9847AA
S2140813C0F0074CBF65662566012002B070BD6164F3
S2140813D0036F0B4303676160F2E7034B9847F3E735
S2140813E043120800D911080017120800F8B50F4B69
S2140813F004460E4698470E4B054620469847054035
S21408140013D00C4C04F160072368B34208D1616816
S214081410294205D0E36830469847636825EA0305FD
S214081420BC4202D01034002DEED1F8BD6712080079
S2140814306B120800901707200B210148014B18472C
S214081440000E0E40ED1308000C210148014B18470A
S21408145000100E40ED1308000D210148014B1847F7
S21408146000120E40ED1308000E210148014B1847E4
S21408147000140E40ED1308000F4B1A6B22F0700292
S214081480104340F601021863996E08070CD51A6BCC
S21408149022F0030242F002021A6340F60102996E35
S2140814A0090705D500207047013AEDD1012070479D
S2140814B0013AF4D1FAE700BF00060E400E4A136A56
S2140814C028B10E4919400E4B0B431362704723F49C
S2140814D05C1323F00303090243F45C1389B243F058
S2140814E001030B431362936EDB07FCD5136A43F0C4
S2140814F09B7343F48033E8E700060E40FCFFC8FE03
S21408150002003701024B986E00F48030704700BF27
S21408151000060E404FF00052014B9A62704700BF1B
S21408152000060E40024B986E00F00200704700BF9F
S21408153000060E404FF44412024BDA619A6E5206C9
S214081540FCD5704700060E40024AD36923F4803360
S214081550D361704700060E40064B00F07F00C3F8C4
S2140815600C01D3F80C21002042F01022C3F80C21FD
S214081570704700BF00060E40000200F47060024B81
S21408158040F001009863704700060E402022014B89
S2140815901A60704700060E40034BC0F312001A6F1D
S2140815A010431867704700BF00060E400A4B0B49E9
S2140815B01A6F42F480121A670A6922F004020A6156
S2140815C0BFF34F8F20BF4FF4FA7200BF013AFCD129
S2140815D01A6A1207FCD5704700060E4000ED00E0B8
S2140815E02DE9F04F431E87B0042B1BD8DFE813F015
S2140815F00500050021002100FE00824A136F23F42F
S21408160080131367804A136923F0040313610122C9
S2140816107E4B1A70BFF35F8F62B6022805D1BFF300
S2140816204F8F30BF07B0BDE8F08FBFF34F8F20BF96
S214081630F8E772B6BFF35F8F0023744D744A2B70B9
S2140816400123704C734F1370D4F820B0266B3B6898
S214081650714901930B6806F0030A0293D4F82880B0
S214081660E369BAF1010F03934BF45C1343F00803E4
S21408167023628946049240F2878026F0030141F0EF
S21408168001012163A36E1B07FCD511F0700F7DD1F5
S214081690624905908847624988470598A16E8A037B
S2140816A0FCD5216A21F09B7121F4803141F45C114C
S2140816B02162A16ECB03FCD5019B042823F470613C
S2140816C03960029B23F47061C9F8001007D1216ABB
S2140816D021F45C1121F0010141F45C112162012121
S2140816E02970BFF35F8F62B64E49884772B6BFF35C
S2140816F05F8F00211BF0020F29704ED0226A4A49DC
S21408170011404A4A0A432262226A22F45C1222F0F4
S214081710780242F45C122262454A08EA02021AB1CA
S21408172048F00052A2620222039BD90344BFE36139
S21408173042F04002BAF1020F50D0BAF1030F51D06E
S214081740236B06F0700123F070030B432363A36E2C
S2140817501907FCD5019B3B60029BC9F8003026633D
S214081760A36E1B07FCD5A36E1342FCD00026049B71
S214081770304C1E7023680BB19847266001232B70E7
S214081780BFF35F8F62B64DE731467EE721F0700102
S2140817902163A16E0907FCD57AE71BF0010FBBD0C1
S2140817A0226AD1070CD5226AD201ADD4226A42F049
S2140817B09B7242F480322262A26ED003FCD5A3E765
S2140817C0226A22F45C1222F0030242F45C1242F00F
S2140817D001022262A26ED307FCD5E4E7A36E9B073C
S2140817E0FCD5ADE7A36E5806FCD5A9E7064A1369EB
S2140817F043F0040313610122044B1A70BFF35F8F92
S21408180062B614E700060E4000ED00E0D40207209A
S21408181000180720000A0E40000C0E401515080098
S21408182049150800AD150800FCFFC8FE0200370180
S2140818300000FF0704180720024B187880F0010004
S214081840704700BF0018072082B0EFF31083B3FA82
S21408185083F35B09019372B6BFF35F8F0022024BD6
S2140818601A70019802B07047D40207200522034B6D
S2140818701A704FF40022024B1A607047101807209F
S214081880F0C10A40024B1B6903B11847704700BFF6
S214081890CC18072028B10122024B1A70BFF35F8FBD
S2140818A062B67047D402072010B5074C0146235C81
S2140818B0FF2B00D1FEE7054B9847635C0133635462
S2140818C0034BBDE810401847C418072049180800FD
S2140818D09518080010B5074C0146235C03B9FEE7C7
S2140818E0054B9847635C013B6354044BBDE81040C6
S2140818F0184700BFC418072049180800951808009C
S21408190038B5074C0546237828B913B10220054B8D
S2140819109847257038BD002BFBD10220024BF7E70D
S21408192009180720D5180800A918080008B5094B93
S21408193098470122084B1A60084B98470222084B22
S2140819401A600023074A136153619381064A13708D
S21408195008BD00BF4918080020C20A4095180800AC
S21408196060C10A40CC180720101807200322084B2D
S21408197010B51A70074B98470122074B07490A60AB
S2140819801A6008220A601A60BDE81040044B18471F
S2140819901018072049180800F0C10A4060C10A401C
S2140819A0951808002DE9F047324988470122324B3E
S2140819B0324E1A60B047324F89463B78032B05D122
S2140819C0304B9847BDE8F0472F4B18472F4A304D05
S2140819D01388AC899046E41AA4B2ECB92D4A11884B
S2140819E00B449BB21380EA889A4202D02A4B1B7893
S2140819F05BB104233B70C8471023284A1360903213
S214081A0013603346BDE8F04718476B691BB3984721
S214081A1008B3A8F80040AC893F2C1CD90022402403
S214081A201D4B1A70B8F800A0A9685144C8471C4B4B
S214081A3002461B689B0712D41A4BD8B2A04213D38F
S214081A40012316495444A8F80040903141F8903CC8
S214081A500B601046D5E701220F4B1A70E2E7B04735
S214081A6004233B70BDE8F08711F8010B03F8010B5F
S214081A70E3E700BF4918080020C20A409518080086
S214081A8010180720851808002D1908000C180720BC
S214081A90CC1807200E1807200818072060C10A402F
S214081AA030C10A400000182010B4037D0C46D90740
S214081AB00FD56FF300030375036853B1064951F851
S214081AC02210C90548BF42F080028168204610BC33
S214081AD0184710BC704700BF00C10A4018232DE9FC
S214081AE0F047484F00F1FF3803FB08731A7D01469C
S214081AF0D60740F18580DA689C68DFF82C91A24208
S214081B0054D0A41A59F82030B4F5803F92BF260462
S214081B104FF480340026DD0534D5082359F8200014
S214081B20C0F302108340013B234208D0182303FB6E
S214081B300873187D46F008066FF3410018751825D7
S214081B4005FB0875304B03EB011A6B681344CAF89B
S214081B5004302E4B9847DAF80C302D4A13F0100F45
S214081B6021D146F02106CAF80860EB6829492344C3
S214081B70EB604FF0007303FA08F32C618B61BDE845
S214081B80F047104759F82030C3F3C123012B07D17B
S214081B90082359F82000C0F3021083409C42CED890
S214081BA046F01406CBE79047EB68AB6059F821304F
S214081BB0DC051CD5182303FB08731B7D980716D570
S214081BC00123154A42F82130303A52F82120D20330
S214081BD044BF124A42F82130114A42F821304FF4E5
S214081BE080520C4B02FA01F19961BDE8F087182083
S214081BF00A4600FB0870BDE8F0470021094B184765
S214081C00BDE8F0871418072000C30A4049180800E2
S214081C109518080000C00A4060C10A4090C10A40F2
S214081C20F0C10A40A91A080000C10A4070B53D4B29
S214081C3098473D4B0446282098473C4B98475022E7
S214081C403B4B4FF4802083F828234FF480725A6069
S214081C50384B9847384BD3F8002822F08072C3F8E0
S214081C600028D3F8002842F00072C3F80028D3F8FA
S214081C70002822F08072C3F80028D3F8002842F41F
S214081C808052C3F80028D3F8002842F40042C3F86C
S214081C9000281A6822F480521A601A6822F44062F1
S214081CA01A60D3F8002822F48042C3F80028D3F834
S214081CB004285004FBD500231825204805FB0302FA
S214081CC0117D013301F0FE016FF38201062B1175B9
S214081CD0F4D10222184BC3F80828D3F804180905CB
S214081CE048BFC3F80C28D3F8002842F00202C3F80D
S214081CF00028D3F8002842F48042C3F80028104A87
S214081D0013785BB90121032011700E4A13700E4B2D
S214081D1098472046BDE870400C4B184700200C4BEF
S214081D20F6E700BF4918080059150800050208001C
S214081D3000E100E09915080000C00A4014180720C2
S214081D400A18072009180720A91808009518080077
S214081D500119080070B5174B9847174B0446012021
S214081D609847164BD3F8002822F48042C3F8002878
S214081D70D3F804285204FBD51A68082622F4807281
S214081D801A6004251022022001219E6199619A6139
S214081D909D6198619E609D609860D9609A60D3F84E
S214081DA00028204642F48042C3F80028BDE8704068
S214081DB0034B1847491808000119080000C00A40D4
S214081DC095180800094B0020D3F8002822F4804212
S214081DD0C3F800281A6842F480721A60D3F80028FC
S214081DE042F48042C3F80028014B184700C00A4056
S214081DF001190800984B2DE9F0479847974B50B9BA
S214081E005A6812F0010206D172B6BFF35F8F944B80
S214081E101A70BDE8F0875A6856070CD504229A60EF
S214081E20D3F8043813F4405F01D18E4B98478E4B95
S214081E30BDE8F04718475A68950703D502229A6006
S214081E40884BF5E75B68DC0440F1F5811022874B88
S214081E501A600822F03BC3F8F0201A681C4612F0F5
S214081E60040F4BD0824D2B781BB1824B9847824B80
S214081E7098472368C3F30A53082B06D07F4B984726
S214081E8004227F4B1A60BDE8F0877E4B7E4E7F4C5F
S214081E907F4A13F8010B991993420855F9D17D4BDF
S214081EA098470426764920B9744B98470E60BDE8D3
S214081EB0F0870E6094F90030002B0ADA0023764A81
S214081EC01380764A138002232B70754BBDE8F047C3
S214081ED01847E3880BB9734BF8E700236E4A1024BB
S214081EE013806E4A138001232B706F4B0C60984743
S214081EF06E4B1C606E4BBDE8F04718471B68D8074A
S214081F0003D56C4B1B68D907DFD423689A0759D5C5
S214081F10574B1B78012B09D0022B01D0042B03D179
S214081F20544B9847544BD1E7544BFAE75B4D21681E
S214081F30564A2B88C1F30A5190895C18A0429468C7
S214081F40B8BFC11A03F1FF3020444E4CB8BF89B25F
S214081F50E6B28E4216D30B449BB240292B80484CDF
S214081F6005D14D4ED08831881944884212DC9381B9
S214081F70536963B1984750B9404B9847022323608A
S214081F80BDE8F08714F8016B00F8016FE0E702235C
S214081F902360A0E7918999420BD15369002BEBD0B7
S214081FA098470028E8D033882A88134433800023CB
S214081FB02B801021022323603B4B216098473B4B24
S214081FC0196097E723681B070FD508222C4B1A6061
S214081FD02368DF0700F15A81254B1B78032B40F056
S214081FE055814FF40022314B4CE72368DE0640F15A
S214081FF022811022224B1A6023689D0700F1468131
S2140820001B4B1B78012B3FF466AF042BE7E7DEF883
S214082010101007FA04F0014277D0D5F89090A10086
S21408202019F0010F05F190084AD0D5F8009019F07C
S214082030010F45D001240D48114D0C504C514FF45A
S21408204080440C5018241C48002104FB0300BDE8FB
S214082050F0471A4B184700BF3918080000C00A4056
S214082060D4020720090C0800ED2B080020C20A40FD
S21408207010180720851808002D1908006D18080084
S21408208060C10A4000001820FFFFE7DFCC180720D1
S214082090080018203D0C08000E1807200C1807200A
S2140820A0A51908006D19080049180800F0C10A406B
S2140820B095180800C0C10A4014180720A91A080075
S2140820C0D8F80020D20420D52A68C2F30132E2B933
S2140820D04FF480556E4C0D51A4F5087460611824B1
S2140820E06C4804FB0303187D62F382006A4A18757D
S2140820F08B5823F400738B504FF40022674BCA505A
S2140821004FF48022CA50BDE8F0870134072C05F149
S214082110040540F09880624B586810F0080037D0E5
S2140821200822002018275B4E5E4D9A60441CE2B2D7
S21408213007FB00600121A847062C2046F6D15A4B1B
S21408214098475749544A0B6823F07F030B600B687F
S21408215043F080030B60136823F4CB5323F01C036F
S21408216043F030031360136843F002031360CB692F
S21408217043F00103CB614D4B98470422474B1A6046
S21408218002221A604FF480538B61494B9847C9E680
S2140821901A69D70716D55A68D60713D5D3F800286C
S2140821A022F48042C3F8002801225A6110229A615C
S2140821B0D3F8002842F48042C3F800283D4B9847DD
S2140821C03D4B35E6364B1A6912F0100F1A4618D0F2
S2140821D05968CD0615D5D3F8002822F48042C3F8EE
S2140821E000281A46D3F80418480402D45968CC07BD
S2140821F0F8D51023012053612E4B906198472F4B3A
S21408220016E6D2F80438990740D5D2F8003823F4F1
S2140822108043C2F800380223C2F80838D2F80038DB
S21408222043F48043C2F80038D2F804381B054CBF84
S214082230234B244B4AE61A4E01244FF0007CB64640
S2140822404FF48057204D631E31690CFA03F00142A3
S214082250E2B23FF4DCAE716808423FF4D8AE1B49E0
S21408226001EB0211CC68E40710D47061CC68240C2A
S21408227007D01821074801FB0303D968091BD96052
S21408228099601046BDE8F047114B1847BDE8F0873F
S21408229020C20A401418072000C10A40F0C10A40AC
S2140822A000C00A40A91A0800CD0B08004918080003
S2140822B09518080001190800DD2B0800E52B080012
S2140822C0551D0800C51D080034C10A4000C30A4051
S2140822D0DD1A0800034BD3F8040810F4405018BF62
S2140822E00120704700C00A40084B00F07F001A68BB
S2140822F022F080021A601A6822F07F0202431A60EF
S2140823001A6842F080021A60704700BF00C00A4090
S214082310024B186800F07F00704700BF00C00A40F4
S214082320024B186AC0F3CA00704700BF00C00A40D4
S214082330024B186AC0F30D00704700BF00C00A4081
S214082340014B986099817047CC18072000F00F025F
S214082350062A10B51CD801210E4801FA02F4C369F2
S21408236000F5807023EA040340F8E43C50F8223075
S214082370541E23F0020340F822301820064B00FBB8
S2140823800434064B20469847237D6FF38203237553
S21408239010BD00BF00C00A4014180720A91A08007C
S2140823A0034B00F00F0053F82000C0F3C0407047FE
S2140823B0C0C10A4000F00F01062970B505463DD891
S2140823C01F4B53F821301A0325D418221D4B4C1ED8
S2140823D002FB0434237D13F004001CD1DB071BD456
S2140823E0194B984715F0800F0646184D184A14D012
S2140823F0184B53F8213013F4405F0ED0237D43F07A
S214082400040323754FF4805345F8213003FA01F18D
S214082410114B99619047012070BD104850F8213043
S21408242023F4007340F8213040200D4B43F8210078
S2140824304FF40023304645F82130EBE7002070BD06
S214082440C0C10A401418072049180800F0C10A40FD
S2140824509518080030C10A4000C00A4000C10A406A
S21408246060C10A4000F00F00062810B547D81823A8
S2140824702449441E03FB0412137D13F004030FD0F3
S21408248002F11003127D6FF382021A714FF4805323
S2140824901D4A42F820308340A2F508725361012392
S2140824A01A4A52F82020120325D5194B53F8203023
S2140824B05B0608D54022174B43F820204FF48022AD
S2140824C0903343F820204FF400220F4B43F8202087
S2140824D0114A52F8203043F4007342F8203018228C
S2140824E062438B18187DC40707D56FF3000018756C
S2140824F08B58984701E0002BF1D1012010BD002031
S21408250010BD00BF1418072020C20A40C0C10A40E8
S21408251030C10A4060C10A4000C10A402DE9F74FA1
S21408252000F00F07062F16461D4622D80120254B19
S214082530B840DB69184041D0234B53F8270010F405
S214082540002016D14FF018097C1E09FB04F91F4B12
S21408255003EB090B9BF814A098461AF0040A2DD131
S2140825601B4B98479BF814301A4A13F0010302D005
S2140825709047002022E09BF814E001934EF0010EED
S2140825808BF814E09047019BCBF80460CBF80C302E
S214082590CBF810300C9BCBF8085048F8093011B926
S2140825A0B5FA85F14909182303FB0484237D3846C8
S2140825B061F341032375084B9847012003B0BDE833
S2140825C0F08F00BF00C00A40C0C10A401418072098
S2140825D04918080095180800DD1A08002DE9F74F75
S2140825E000F00F04062C01D900205FE0664BDD6979
S2140825F00123A34013EA050EF6D101F00303012BCD
S21408260001D0F1D37346614E10F0800F56F824704F
S214082610A2F5806080B227F4CB574FEAC12118BFD5
S2140826204FF4807EB0F57C4F06EB840527F01C0738
S21408263001F4C0513DD3082A3ED95200013AB2FAF5
S21408264082F241EA830343EA0E03C2F11C0243EA1C
S2140826500213012223F4D06323F00303DB04DB0C0C
S2140826603B4346F824301046062302FA04F7464E43
S214082670DFF820E1BFB2DAB294421FD34FF0180950
S214082680434BDFF804A1984609FB0436DFF808B187
S21408269047FA04F3DA07E0B224D40134E3B2072B8E
S2140826A005F1040506F11806F2D1012003B0BDE8CD
S2140826B0F08F40F2FF72C2E70F22C0E7F26900FA15
S2140826C003F10A420CD0F2690F4322EA0102F261D2
S2140826D003EB0E0292001168BFB221F002011160EE
S2140826E0013BC8E7611E09FB0182137D03F0010E5A
S2140826F06FF3000313752B6843F002032B60012366
S214082700DAF81CC0A34043EA0C03CAF81C302B6B4B
S2140827105B0312D41468002C3FF466AF2B68DA0506
S2140827204FF0180303FB018848BF40F080000246BC
S214082730D8F80C100120A04756E72B6843F400731E
S2140827402B60BEF1000FA8D056F80C3C56F8082CA3
S21408275009FB01819A1A46F80C2C2B6891F814E0AC
S21408276056F8181CDB0556F8103C009156F8141C51
S21408277048BF40F080009B1A0A44CEF34001D84771
S21408278000288AD130E700BF00C00A4000C10A40CE
S2140827901418072040B002101D2508004FF00073DB
S2140827A070B4002400F00F021349561EB3404B6164
S2140827B0124B03EB02139C604FF4805393404B611B
S2140827C0010607D418200E4B012100FB063070BC0A
S2140827D00C4B18474FF400500B490C4C0C4D93000B
S2140827E019441C441D440B6813F4405FEAD020606B
S2140827F02B689B04FCD4F6E700C00A4000C30A40D6
S21408280014180720A91A080030C10A40F0C10A4067
S214082810C0C10A40054A136823F4406343F40063C2
S2140828201360136843F400531360704700C00A40EF
S214082830054A136823F4406343F40063136013687F
S21408284043F480431360704700C00A40034A136885
S21408285023F4406343F400631360704700C00A40E3
S21408286070B58EB06A466C461F4B03F130061546A7
S21408287018685968083303C5B3422A46F7D118685A
S2140828801B791A4A28602B71D369194923F001036A
S214082890D3610B68174823F4CB5323F01C0343F487
S2140828A0895343F010030B600B6843F002030B6078
S2140828B0D36943F00103D361136823F4406343F4F8
S2140828C000631360136843F4004313600A4B0B4A13
S2140828D01918615C03F8011F9342F9D14FF480423E
S2140828E0074B1A600EB070BDA030080000C00A4042
S2140828F000C10A400100E8DFFFFF17203400182057
S21408290020C20A40B2EB011F30B52CBF10240824A1
S21408291061434B0803EBC202B2FBF1F24FF6FE73BB
S214082920D1084D1E9D4210D8082C08BF43684FEAB0
S214082930024202F4E02208BF43F4002342EA0102FE
S21408294008BF43600262002030BD012030BD000091
S214082950084BC0F8E4300023436043628362882350
S2140829600360242303604FF4807303604FF400234E
S214082970036070470041535570B50D4B05460C462D
S214082980984700230B4E336009B9012070BD0968CB
S214082990094B98470028F8D1A26863681343226950
S2140829A01343E26813436A68336013436B6070BD71
S2140829B051290800A41807200529080040230360A9
S2140829C070478023036070471023036070472423F2
S2140829D00360704781607047C16070470069704740
S2140829E04069704743699B0743BFC1F30801C1614B
S2140829F00020012070474369DB0741BF8369002038
S214082A00C3F308030B6058BF01207047FEE70000B9
S214082A1008B5154A154B9A4219D10021144B154A88
S214082A2093421DD3144B154A23F0604121F07F01D1
S214082A3003F16043B3F5801F91603EBF936843F08F
S214082A40005393600E4B98470E4B9847FEE70E4987
S214082A50043A8B42E1D252F8040F43F8040BF8E725
S214082A6043F8041BDCE700BF083108000000072015
S214082A700C070720081907200000080000ED00E0F2
S214082A80112F0800592B08000C07072010B52B4AF1
S214082A90136B03F00303012B294B0FD004D3116AE1
S214082AA0CC012CD5274946E02749496908064CBF7A
S214082AB04FF400414FF4FA4119600DE0116AC9015C
S214082AC001D52049F8E721491960116A01F070011B
S214082AD0102912D02029F4D0116B01F0700170294A
S214082AE005BF03211A68116BB2FBF1F21EBF1A6804
S214082AF0C1F30211CA401A6010BD1549DCE7134934
S214082B001960116A01F07001102913D02029C9D064
S214082B10116B01F00301022901BF946A1968C4F316
S214082B200A4404FB011109BF906A0A49C0B2B1FB06
S214082B30F0F1C1E706491960EAE700BF00060E4053
S214082B40D8020720001BB700101A0E4000093D00E7
S214082B5000127A00001C4E0E0123184E80B5337002
S214082B60BFF35F8F62B60024154D164F6B71164B78
S214082B702C706C70AC70EC702C719847134B98479F
S214082B80134B9847134B9847134B984772B6BFF3A7
S214082B905F8F00233470D8B25A1CEB5C33B138B957
S214082BA001233370BFF35F8F62B6EFE71346F2E791
S214082BB072B6BFF35F8F3470B847E7E7D4020720D2
S214082BC0C4180720E115080025020800BD100800F3
S214082BD06101080081010800C50B0800004B184772
S214082BE081010800004B18479D01080010B5054BE9
S214082BF01B782BB1044B9847BDE81040034B184789
S214082C0010BD00BFA818072021230800E50108000A
S214082C1010B50124024B1C70024B9847204610BD85
S214082C20A8180720592E08000022024B1A70024BDB
S214082C30184700BFA8180720E92E080009B1024B5C
S214082C401847024BFCE700BFA9010800C1010800AD
S214082C5073B5054600282AD00128254C18BF00243D
S214082C602046244B9847C207064627D5224B984746
S214082C7001A92046214B984710B916F4E07F0AD0E0
S214082C8020461F4B984720461E4B98471E4B284603
S214082C9098471E4B984728461D4B984748B91D4BE2
S214082CA0284698471C4B98471C4B984715E01C4CE1
S214082CB0D6E7019928461B4B9847F5E783070CD5B6
S214082CC02846194B984750B1184B9847184B284632
S214082CD09847184B01462046984702B070BD2046D4
S214082CE0154B9847154B022120469847144BDCE7AE
S214082CF000800940E1290800DD010800F7290800DE
S214082D00CF290800C92908009D060800E101080027
S214082D10D5090800A9060800E3010800DF01080035
S214082D2000C00940E9090800F1060800D9010800B2
S214082D30D1080800E5290800C3290800D929080091
S214082D40DB0108000020014B184700BF512C080083
S214082D500120014B184700BF512C080010B588B158
S214082D6001280A4C18BF0024094B20469847C30779
S214082D700AD52046074B98472046BDE81040022152
S214082D80054B1847054CEFE710BD00BF008009400B
S214082D90DD290800BD290800D529080000C009401B
S214082DA070B500283DD00128204C18BF00240B79A8
S214082DB0012B38D0022B0CBF4FF4005200224B795F
S214082DC01B4D013BDBB2032B96BF1A484FF400603D
S214082DD030F813008B790968053B022B88BFC0239F
S214082DE085E80A004FF00053A8602B612046124B76
S214082DF0EA60984706464FF0FF3120460F4B984743
S214082E0029460F4A20460F4B984720460E4B9847B0
S214082E1020460E4B984731462046BDE870400C4B7E
S214082E2018470C4CC3E74FF48052C8E700800940A7
S214082E30AC180720D6300800DD290800D929080074
S214082E4000BD010579290800BD290800C929080020
S214082E50D529080000C0094010B510B1012822D0B5
S214082E6010BD30224FF48021154B122083F8122310
S214082E70196083F811234FF400321A60114B9847F3
S214082E80114C124A12492046124B9847B8B92046A8
S214082E90114B98472046114B98472046BDE81040EE
S214082EA003210F4B18473022054B112083F81123B6
S214082EB04FF400321A60034B98470A4CE1E710BDFE
S214082EC000E100E05915080000C0094000BD0105F2
S214082ED0AC18072079290800BD290800C929080068
S214082EE0D52908000080094020B94FF0FF31054871
S214082EF0054B1847012803D14FF0FF310348F7E781
S214082F00704700BF00C00940D92908000080094062
S214082F1070B50F4E0F4D761BB61018BF002405D09F
S214082F20013455F8043B9847A642F9D10A4E0B4D92
S214082F3000F0D8F8761BB61018BF002406D0013467
S214082F4055F8043B9847A642F9D170BD70BD00BF3E
S214082F50F0300800F0300800F8300800F0300800BC
S214082F60024B13B1024800F005B870470000000095
S214082F70812F0800002301461A46184600F01EB89E
S214082F8038B50A4C0A4D641BA4100AD004F18043D5
S214082F90013B05EB8305013C55F804399847002C9E
S214082FA0F9D1BDE8384000F0A7B800BF08310800DE
S214082FB004310800704700BF704700BF2DE9F8438A
S214082FC02C4D0646286898460F469146FFF7F2FFAE
S214082FD0294B1C68D4F84831002B3ED05A681F2A63
S214082FE01CDC02F1010E76B1012103EB8204C4F861
S214082FF08890D3F8880191400843022EC3F88801C8
S214083000C4F8088123D00232C3F804E0286843F8DD
S2140830102270FFF7D1FF0020BDE8F883174B0BB3EB
S2140830204FF4C870AFF300800346D8B10020D4F838
S21408303048114FF0010E586019600246C4F848312E
S214083040C3F88801C3F88C01002EDCD0CCE7D3F88F
S2140830508C010143C3F88C11D5E704F5A673C4F8B0
S2140830604831BBE72868FFF7A7FF4FF0FF30BDE8F9
S214083070F88300BF08070720E030080000000000BB
S2140830803B000000000000005500000000000000A3
S2140830905600000000000000570000000100000075
S2140830A0000000000000000000AAAAAAAAAAAAAA6D
S2140830B0AAEEEEEEEEEEEEEEEEFEFFFFFFFFFFFFF1
S2140830C0FFFFFFFFFF7FBFDFEFF7FBFDFC7EBFDFE5
S2140830D0EFF7FBFD7E00000200000006000400007B
S2140830E0E0020720F8B500BFF8BC08BC9E4670474B
S2140830F0612F080019010800F8B500BFF8BC08BC25
S20C0831009E467047F500080022
S2140831084FF48063174A1360C2F80032164B1A6ADF
S214083118D20120D5154A1A629A6ED103FCD51A6BC5
S21408312822F0030242F001021A639A6E1207FCD5CF
S2140831380F4A9A629A6E9007FCD511221A639A6EFD
S2140831481107FCD512221A639A6E1207FCD5094A8B
S214083158094B1A607047094A1A629A6ED007FCD556
S214083168D8E700BF000A0E4000060E4009083701D7
S214083178013F0D2000BD0105D802072009083700C1
S214083188114B124A9842124B03D800211160196055
S21408319870471049884202D84FF48071F6E70E49FE
S2140831A8884202D84FF40071F0E70C49884202D8E2
S2140831B84FF44071EAE70A49884294BF4FF48061A1
S2140831C84FF4A061E2E700BFBFEA2101000A0E40FB
S2140831D8000C0E407FF0FA02FF8FD003FFB3C4043A
S2140831E87F4A5D05ED050800B10208008903080056
S2140831F8C502080000000000C107080061030800AF
S214083208C1020800C5020800810508005402072004
S2140832182401072054020720680207202C010720EB
S214083228000000003401072074020720C4010720A4
S2140832387402072009028D00040100C032080B003A
S2140832480202020100090400000102020100052426
S21408325800100104240202052406000105240103BF
S214083268010705830340001009040100020A00004C
S2140832780007058102400000070502024000000812
S2140832880B02020202010009040200010202010000
S2140832980524001001042402020524060203052456
S2140832A80103030705860340001009040300020A01
S2140832B800000007058402400000070505024000D4
S2140832C80000000009028D00040100C032080B0047
S2140832D80202020100090400000102020100052496
S2140832E8001001042402020524060001052401032F
S2140832F8010705830340001009040100020A0000BC
S21408330800070581020002000705020200020008FD
S2140833180B0202020201000904020001020201006F
S21408332805240010010424020205240602030524C5
S2140833380103030705860340001009040300020A70
S21408334800000007058402000200070505020002BF
S214083358000000001201000200000040EB032524CC
S21408336800010102000100000A06000200000040F1
S21408337801000000E4000720F8000720E400072002
S214083388F800072000030000000000000000000006
S2140833980000000000000000000000000000000018
S2140833A800000000000000000000000004030904F4
S2140833B84C656861476F766E614C65706568610034
S2140833C8434443204D616E6368657374657220557F
S2140833D8415254000100000000093D0000000000AA
S2140833E800000000CC050720340607209C060720A6
S2140833F800000000000000000000000000000000B8
S21408340800000000000000000000000000000000A7
S2140834180000000000000000000000000000000097
S2140834280000000000000000000000000000000087
S2140834380000000000000000000000000000000077
S2140834480000000000000000000000000000000067
S2140834580000000000000000000000000000000057
S2140834680000000000000000000000000000000047
S2140834780000000000000000000000000000000037
S2140834880000000000000000010000000000000026
S2140834980E33CDAB34126DE6ECDE05000B000000EB
S2140834A80000000000000000000000000000000007
S2140834B800000000000000000000000000000000F7
S2140834C800000000000000000000000000000000E7
S2140834D800000000000000000000000000000000D7
S2100838080000000000000000E418072084
S804082A11B8
