:0200000280007C
:1000000060390720C1310800BD310800BD3108004A
:10001000BD310800BD310800BD31080000000000FE
:10002000000000000000000000000000BD310800DA
:10003000BD31080000000000BD310800BD310800DE
:10004000BD310800BD310800BD310800BD310800D8
:10005000BD310800BD310800BD310800BD310800C8
:10006000BD310800BD310800000000007D17080008
:1000700091170800A5170800B91708000000000034
:10008000000000009935080089350800BD310800DE
:10009000BD310800BD310800BD310800BD31080088
:1000A000BD31080000000000BD310800BD3108006E
:1000B000BD310800BD310800BD310800BD31080068
:1000C000BD310800BD310800BD310800BD31080058
:1000D000BD310800BD310800BD310800BD31080048
:1000E00051230800BD310800BD310800BD310800B2
:1000F000BD31080010B5054C237833B9044B13B15A
:100100000448AFF300800123237010BD540707207B
:1001100000000000643908000C4B43B10C4810B5D6
:100120000C49AFF300800C48036823B910BD0A489E
:10013000036833B97047094B002BF7D0BDE8104076
:100140001847064B002BF5D0184700BF00000000F1
:1001500064390800580707206439080000000000CF
:1001600010B53B20034B98475520034CA047562021
:10017000A04710BDB11408007514080010B53B204D
:10018000034CA0475520A0475620A04710BD00BFF4
:100190007514080008B53B20014B984708BD00BF07
:1001A000B114080008B510B1012804D008BD5520CD
:1001B000034B984708BD5620014B9847F6E700BF10
:1001C000B114080008B510B1012804D008BD5520AD
:1001D000034B984708BD5620014B9847F6E700BFF0
:1001E0007514080070477047704770477047704734
:1001F00008B518B1B0F57A7F04D008BD3B20034B99
:10020000984708BD3B20024B9847F6E7B114080019
:100210007514080008B5044B98470020034B984715
:10022000034B984708BD00BFB5180800FD1808002B
:100230001119080010B50E480E4B98473E210020BA
:100240000D4B98470D4CA0470028FCD00C4B98470D
:100250000C4A0D4B9A620D4CA0470028FCD0102090
:100260000B4B98470B4B98470148024B984710BDE2
:1002700000BD0105A50007203118080085180800F9
:1002800095180800013F0D2000060E40A518080033
:10029000CD17080059320800024A1378013BDBB23F
:1002A00013707047860707200020704700207047B2
:1002B00008B5064B1879022814BF00200120044914
:1002C00001EBC001091A034B984708BD201907200C
:1002D00078070720ED35080038B5234B1B78DBB2D3
:1002E000022B02D90022204B1A701F4B1C78E4B25B
:1002F00000211E4B23F814101D4804EB84035B00FF
:10030000C218A125C554202353705180012C0CBF65
:1003100002220A4604EB840100EB41039A80022288
:10032000DA8000221A811349C4EBC4000B1840255F
:100330000D54422058700F209870DA701A715A715B
:1003400008229A71C4EBC403194420460A4B98470B
:1003500020460A4B9847024620B103490B780133E7
:10036000DBB20B70104638BD86070720A00F0720B0
:10037000BC17072078070720ED3508004134080036
:100380004D4B1B5C03B17047F0B585B004464B4B39
:100390009847002849D04A4B33F81450494B9847A6
:1003A000854200F08780EFF31083B3FA83F35B0993
:1003B000039372B6BFF35F8F0022434B1A70039E04
:1003C000424B1D5DEDB205EB4402414B33F8123058
:1003D000002B32D000223F4B1A803F4B1B5D002B7D
:1003E00047D1B5FA85F35B09384A13550122324BE0
:1003F0001A5526B1344B1A70BFF35F8F62B62E4682
:1004000005EB4403324A32F81330B3F5007F14BFD2
:100410000127002737D0294B984700282DD0294B9A
:100420009847274B23F8140031E0254B33F814503C
:100430002A4B98478542B6D13CE0264A13880133BF
:1004400013801E4B984718B9224B1B88632B08D981
:100450001A4B98470028BDD01E4B1B88B3F5487F28
:10046000B8D23EB30122184B1A70BFF35F8F62B649
:1004700020E0B5FA85F56D09B8E7184B9847104BA1
:1004800023F8140003E000220D4B23F81420012C64
:1004900006EB44060E4B33F8163005EB4404104AC5
:1004A0000092104A02EB442239460CBF842081207E
:1004B0000D4CA04705B0F0BDB81707207D290800F6
:1004C000B4170720D92908001C030720B0170720FC
:1004D000A817072072070720A40F0720C9290800C2
:1004E000ED040800A80F0720412C0800842A14BF3F
:1004F0000022012200B1704708B5094B9B5C5100F6
:10050000002B08BF01310023064820F811300649AE
:100510008B5406498B541046054B984708BD00BFC5
:10052000B0170720A8170720A40F0720B817072027
:100530008103080010B5074C2078074B98472378B3
:100540000133DBB2012B03D90022024B1A7010BD1C
:10055000237010BD7007072081030800154B1B5C3A
:100560003BBB30B583B0144B33F810309BB200EB7B
:100570008002124C04EB420212899A4217D00D46B7
:1005800004460D4B33F810100C4A00EB800302EBCD
:100590004303198100EB8001094B00930A2302EB0E
:1005A000410200212846074DA847024B185503B0C9
:1005B00030BD70479C0F0720A00F0720BC170720F5
:1005C00035060800412C080010B582B0EFF3108307
:1005D000B3FA83F35B09019372B6BFF35F8F002414
:1005E000114B1C70019CA9B1104931F810309BB21D
:1005F0001A4321F810202CB101220B4B1A70BFF3C3
:100600005F8F62B601280CBF86218321084B984773
:1006100002B010BD054931F810309BB223EA020246
:1006200021F81020E7E700BF1C030720A00F0720D8
:100630005D05080038B5862A14BF0020012000217E
:100640000B4B19540B4931F8103023F07C031B0479
:100650001B0C21F81030084B8400251803EB4505CE
:100660002B8923F07C032B811146044B984738BD1E
:100670009C0F0720A00F0720BC1707205D0508006E
:1006800008B5064A1378013BDBB213701078044BAF
:1006900098470022034B1A7008BD00BF8707072048
:1006A000593408007407072008B5274B1879022829
:1006B00014BF002001201B7813F0800F05D103F038
:1006C0006003202B1BD0002008BD03F06003202B0B
:1006D00001D0002008BD1C4B5B78212B31D11A4B77
:1006E000DB88072B01D0002008BD174A174B03EB0E
:1006F000C003181A906007239381012008BD124B94
:100700005B78202B03D0222B13D0002008BD0E4B8A
:10071000DB88072B01D0002008BD0B4A0C4B13616E
:100720000A4B03EBC003181A906007239381012042
:1007300008BD054B997801F00101064B984701204F
:1007400008BD002008BD00BF20190720780707203A
:10075000B10208007134080008B510220121014BD4
:10076000984708BDC905080008B540220121014B82
:10077000984708BDC905080082B0EFF31083B3FAAB
:1007800083F35B09019372B6BFF35F8F00220C4BBA
:100790001A7001990B4B33F810309BB20A4A125C65
:1007A00002EB4000094A32F8100080B2C01A29B1A9
:1007B0000122034B1A70BFF35F8F62B602B070471D
:1007C0001C030720940F0720900F0720880F072095
:1007D00008B5034B9847003018BF012008BD00BF83
:1007E0007907080030B585B0EFF31083B3FA83F3CF
:1007F0005B09039372B6BFF35F8F0022264B1A701A
:10080000039B264A155C264A125C62B9EDB2254A62
:1008100032F8101089B205EB4002234C34F8122054
:1008200092B291420AD2002B34D001221A4B1A7094
:10083000BFF35F8F62B6002005B030BD0021194ABA
:1008400022F81010B5FA85F2520914490A54012110
:10085000134A115423B1104B1970BFF35F8F62B666
:100860000446124B984788B9012C05EB4404104B01
:1008700000934FF400730F4A02EB44224FF0010142
:100880000CBF052002200C4CA047D5E720460B4B9F
:100890009847E9E70020CFE71C030720900F0720C7
:1008A000980F0720940F0720880F0720D107080012
:1008B0007509080088070720412C0800A9350800A1
:1008C00070B51F4B1B78DBB2022B02D900221C4BE8
:1008D0001A701B4B1C78E4B200251A4B1D551A4B9D
:1008E0001D551A4B1D551A4B23F82450A6003344AE
:1008F0005D80184B23F814502046174B9847174B30
:100900001D55174B1D55174B23F8245033445D805C
:10091000154B23F814502046144B9847014640B11C
:10092000074A13780133DBB213701378DBB2022B62
:1009300001D0084670BD01220D4B1A70F9E700BFC7
:1009400087070720B8170720A40F0720B017072034
:10095000A8170720B417072081030800980F072065
:10096000900F0720880F0720940F0720E507080045
:100970007407072010B582B0052A14BF0024012493
:1009800090B91046104B1B5DB3FA83F35B0969B154
:1009900089B203EB44030D4A22F8131000220C4BDA
:1009A0001A5520460B4B984702B010BD03EB440488
:1009B000094B00934FF40073084A02EB44220121D3
:1009C000074CA047F0E700BF900F0720880F0720D3
:1009D000980F0720E5070800750908008807072019
:1009E000412C08002DE9F04F83B083460446C0EB4C
:1009F000C002294B134493F806A0BAF1090F14BFA3
:100A00004FF0000A4FF0010A0027244D4FF0000973
:100A1000234EDFF8A08004E08B4227D3214B1B78C4
:100A2000FBB1EFF31083B3FA83F35B09019372B662
:100A3000BFF35F8F85F80090019836F814309BB2B1
:100A400018F80420D2B202EB440E174931F81E10F8
:100A500089B20028E0D001202870BFF35F8F62B612
:100A6000DAE70027384603B0BDE8F08F02EB440216
:100A70000E4901EB4222D25C174301339BB226F8A8
:100A8000143058460A4B9847BAF1000FEAD03F029B
:100A90004FF0000AC5E700BF780707201C030720B6
:100AA000940F072074070720880F07208807072066
:100AB000E5070800900F072010B483B0EFF3108310
:100AC000B3FA83F35B09019372B6BFF35F8F002221
:100AD000154B1A700199154B1A5CD2B202EB400407
:100AE000134B33F81430B3F5007F0BD0C3F500700F
:100AF00029B101220C4B1A70BFF35F8F62B603B0AD
:100B000010BC70470B4C245C002CEFD10A4C245CC9
:100B1000002CEBD10124084B1C54B2FA82F252098A
:100B2000024B1A540023E1E71C030720B0170720EB
:100B3000A8170720B8170720A40F072008B5034BF4
:100B40009847003018BF012008BD00BFB90A08004F
:100B50002DE9F04782B005460C468046C0EBC00246
:100B60001F4B13449E79092E14BF002601261D4FEA
:100B7000DFF88090DFF880A025E0EFF31083B3FA70
:100B800083F35B09019372B6BFF35F8F002389F88B
:100B9000003001981AF80830134A03EB480332F882
:100BA000131001F1010E22F813E0104A02EB432367
:100BB0005C5428B1012389F80030BFF35F8F62B61F
:100BC00066B1241200262846B8470028D5D1084B24
:100BD0001B78002BF7D102B0BDE8F0870120FAE7BF
:100BE000780707203D0B0800A8170720A80F07204B
:100BF000740707201C030720B0170720104B1B6841
:100C00001A6853881A4403781844904211D24378E2
:100C1000042B10D08B4209D003781844904206D29E
:100C20004378042B09D08B42F6D107E070470020AF
:100C3000704700207047002070470020704700BFB9
:100C4000DC17072008B5034B987800F07F00024BB3
:100C5000984708BD2019072091290800194B1B78D7
:100C60004BB3194B1B681B681A79824225D970B4A3
:100C7000164A13605C881C44A34220D2002501263A
:100C800007E0124A13600FE01A7813443546A34276
:100C90000CD25A78042AF7D19A788242F4D1DA78C1
:100CA0008A42F1D1002DECD1012002E0074A136005
:100CB000002070BC70470020704700207047002063
:100CC000F7E700BFD8170720DC170720E017072039
:100CD0002DE9F84304460021134B9847804610B98C
:100CE0004046BDE8F883114B1B685B6853F82490BD
:100CF000D9F80C309847014620460B4B9847804660
:100D00000028EDD00A4B1C6805260A4D0A4F3146D3
:100D10002046A847044610B18078B847F7E7D9F8CD
:100D200004309847DCE700BF5D0C0800DC170720A3
:100D3000E0170720FD0B0800F52908002DE9F04118
:100D40008046104B98470346C8B10F4B1C680526D8
:100D50000E4D0F4F31462046A847044638B18288D1
:100D6000C1788078B84703460028F3D107E0094BE3
:100D70001B685B6853F828301B6898470346184681
:100D8000BDE8F0815D0C0800E0170720FD0B0800AE
:100D90003D2D0800DC17072008B5014B984708BD1A
:100DA0000521080070B50D4B1B7883B10C4B1B68F7
:100DB0001B681B795BB100240A4E094D2046B047E1
:100DC0000134E4B22B681B681B79A342F6D80022D9
:100DD000024B1A700122044B1A8070BDD8170720ED
:100DE000DC170720D10C0800D017072038B50D4BB1
:100DF0001B78B3B10C4B1B681A6812798AB10024B6
:100E0000094D06E00134E4B22B681A681279A24257
:100E100007D95B6853F824301B69002BF2D0984740
:100E2000F0E738BDD8170720DC170720F8B5944B3A
:100E300000229A811A615A611B7813F0800F14D135
:100E400013F0600F00F03A818D4B1B7803F01F0305
:100E5000012B00F006828A4B1B7803F01F03022B44
:100E600000F0848200231846F8BD854AD288002A03
:100E700000F0A58213F0600FE6D113F01F0307D135
:100E80007F494978062916D0082900F0BA8059B15F
:100E9000012B00F0BE80022BD6D1794B5B78002B62
:100EA00000F0E0800023CEE1022AD4D1022175486F
:100EB000754B98471FE1724B5A88D4B2130A013B15
:100EC0000E2B00F20F82DFE813F00F001E007900F6
:100ED0000D020D023F004D000D020D020D020D022C
:100EE0000D020D020D027000684B984728B9684B3F
:100EF00098680178644B98472BE0654B1868017837
:100F0000614B984725E0614B984780B1604B9B68E7
:100F10005B7CA34298D95E4B1B6953F8340041882F
:100F2000594B9847564B9B6802225A7011E0584B18
:100F30001B685B7CA34287D9554B5B6853F8340030
:100F40004188514B9847EDE7514BD86801784E4B9B
:100F500098474B4BDA889B89934240F2CC80484BB0
:100F60009A81C8E0494B984788B9494B9B685B7C9C
:100F7000A3427FF669AF464B1B6953F834004188A2
:100F8000414B98473E4B9B6807225A70E1E7404B24
:100F90001B685B7CA3427FF657AF3D4B5B6853F801
:100FA00034004188384B9847ECE7394B58690028A2
:100FB0003FF451AF4188344B9847CAE7D2B2012A77
:100FC0001CD0B2B1022A7FF43FAF324A1321013A5A
:100FD0003148002312F8014F20F8024F0133DBB2F1
:100FE0008B42F7D3490002312B480170264B9847BA
:100FF000AFE704212948244B9847AAE7284A0F2144
:10100000E5E7012A7FF427AF012126481E4B9847C8
:1010100071E01B4949780A297FF43DAF012A40F06D
:101020002081204B1B78002B00F01B81144B1C7976
:101030001D4B1D682B681B79A34240F212810021D1
:1010400020461A4B984700283FF4FEAE6B6853F8D1
:101050002430DB689847164B1870012118460A4B5C
:10106000984748E0022A7FF4F6AE054B1879114BF9
:101070009847114B188002211846034B98473AE0D5
:1010800020190720D0170720E92908007D2908002A
:101090005401072008030720CC020720F402072090
:1010A000F8020720D8170720DC1707205D0C08007E
:1010B000D4170720512A0800D217072013F01F0366
:1010C00040F0B5808A4A5278013A082A00F2AF808F
:1010D000DFE812F01300AD002300AD000900AD0001
:1010E000AD00AD005400824BDB88002B7FF4B3AE23
:1010F000804A7F4B1A610123B5E67D4BDB88002BCC
:101100007FF4A9AE7A4B5B88012B7FF4A4AE7A4AB8
:10111000138823F002031380EDE7754BDB88002B67
:101120007FF499AE724B5B88022B40F0DD80734BED
:10113000984700283FF488AE6D4B1B79002B7FF455
:1011400083AE6F4B98476A4B9B881B0A013B032B6E
:1011500000F2CC80DFE803F002060A0E694A644B15
:101160001A61C8E7684A624B1A61C4E7674A604B74
:101170001A61C0E7664A5E4B1A61BCE75C4BDB88CC
:10118000002B7FF468AE634B984700283FF45CAEB9
:101190005A4B9847002836D0554B9A785E4B9B683F
:1011A0005B7C9A423FF750AE554B9847504B9B782B
:1011B0005A4A1370002B9ED0504B984700282AD0D3
:1011C000564B1B7803F10053013B534A126902EB63
:1011D000C303534A1360524B1B681B681B79002BD7
:1011E00089D0002426464F4D4D4F31462046A84712
:1011F00000283FF429AE0134E4B23B681B681B7938
:10120000A342F2D877E73A4B9A78434B1B685B7C52
:101210009A42C9DD18E6414B1B7803F10053013BAC
:101220003D4A526802EBC3033D4A1360D3E7012BEA
:101230000DD0022B7FF408AE2D4B5B78012B2ED006
:10124000032B3CD00023002B7FF40DAEFCE5284A95
:1012500052780B2AEDD1264BDB8813B92F4B1B7824
:1012600073B92E4B1B78002B00F0AB80204B1C7900
:101270002B4B1D682B681B79A3425DD80023F2E538
:101280001B4B1C795D882046274B984700283FF46C
:10129000DBADE9B22046234B98470346D3E7144B16
:1012A000DB88002B7FF4D7AD114B5B88002B7FF4DC
:1012B000D2AD0F4B18791D4B98470346C3E70C4B33
:1012C000DB88002B7FF4C7AD094B5B88002B7FF4D4
:1012D000C2AD074C2079164B98472079154B98479B
:1012E0000346B0E70023AEE70023ACE70023AAE7FC
:1012F00020190720450C0800D01707207D29080079
:10130000A50D0800B12F0800CD2F0800E92F080017
:10131000FD2F0800B929080054010720D81707201D
:10132000DC1707203D0D0800D10C0800652B0800D4
:10133000312F0800652A080000212046224B9847DB
:1013400000283FF488AD6B6853F82450EB68984749
:10135000014620461C4B984700283FF47CADAB6803
:101360009847034600287FF47EAD74E5174B1B7841
:101370000BB3174B1A6813681B79F3B10024124E94
:10138000134F536853F82450EB68984701462046A2
:10139000B047034600283FF466ADAB689847034664
:1013A00000287FF460AD0134E4B23A68116809792D
:1013B000A142E6D857E5002355E5002353E5002375
:1013C00051E500234FE500BF5D0C0800D81707204A
:1013D000DC17072010B54FF400421E4B5A600B205B
:1013E0001D4CA0470C20A0470D20A0470E20A04771
:1013F0004FF060513B20194CA0474FF060515520F1
:10140000A0474FF060515620A04715496820A047DB
:1014100014495C20A047144A4FF440711348144B00
:1014200098474FF000610A20A0474FF000610B2061
:10143000A0474FF000610C20A0474FF000610D2045
:10144000A0474FF000612B20A0474FF000612A20F9
:10145000A04710BD501A0E40DD180800C115080045
:10146000790000280100002801000008000E0E404D
:10147000911608002DE9F04106460A4C04F12005BA
:10148000094FDFF8288003E0C0470834AC4207D09A
:101490002068B042F9D16368012BF5D0B847F4E772
:1014A000BDE8F081E43808008B150800A515080098
:1014B0002DE9F04106460A4C04F12005094FDFF8FA
:1014C000288003E0C0470834AC4207D02068B0420F
:1014D000F9D16368012BF5D0B847F4E7BDE8F08196
:1014E000E4380800A51508008B1508004264B1F126
:1014F000805F16D00BD849B1B1F1006F05D1036FF1
:10150000016F0B4023EA0203036742607047B1F1A9
:10151000405FFBD0B1F1605FF8D0B1F1205FF4D152
:101520007047036F13430367EFE7416412F0010F45
:1015300014BF4166016612F00A0F14BF01624162D6
:1015400012F0020F07D112F0080F18BFC0F8841074
:10155000416101607047C0F88010F9E710B4019C48
:10156000416444B9016643B1016542B94163016117
:10157000016010BC70474166F5E74165F5E701631E
:10158000F5E7C06C7047806C7047430903F50013A2
:1015900003F207735B0200F01F00012202FA00F061
:1015A00018637047430903F5001303F207735B02E6
:1015B00000F01F00012202FA00F05863704700009B
:1015C00070B582B00D46430903F5001303F20773AB
:1015D0005C0201F0F043B3F1205F31D016D8B3F1D3
:1015E000006F1BD0B3F1805F16D100F01F00012601
:1015F000864032464FF080512046224B984715F0E6
:10160000010F14BF66662666012017E0B3F1405F44
:1016100021D0B3F1605F1ED000200FE000F01F006A
:101620000126864032464FF000612046154B984710
:1016300015F0010F14BF66662666012002B070BD6A
:1016400000F01F0101262A4606FA01F120460E4B42
:1016500098473046F2E705F0605200F01F0101267E
:1016600005EA06030093C5F38003B2F1605F14BF7F
:101670000022012206FA01F12046044CA047304620
:10168000DCE700BFED1408002B1508005D1508000D
:1016900070B582B005460E46144602F0F043B3F131
:1016A000205F27D011D8B3F1006F16D0B3F1805F5F
:1016B00011D10A464FF08051194B984714F0010F91
:1016C00014BF6E662E66012012E0B3F1405F15D0A4
:1016D000B3F1605F12D000200AE00A464FF00061CB
:1016E0000F4B984714F0010F14BF6E662E66012051
:1016F00002B070BD0B4B98470120F9E704F060522F
:1017000004F001030093C4F38003B2F1605F14BFDF
:101710000022012231462846034CA0470120E7E77A
:10172000ED1408002B1508005D1508002DE9F041A7
:10173000044688460E4B9847054620460D4B984771
:10174000054013D00C4C04F1600603E0B4420DD008
:1017500010345DB120684045F8D161682942F5D068
:10176000E3689847636825EA0305EFE7BDE8F08181
:101770008315080087150800E417072008B50B211A
:101780000148024B984708BD000E0E402D17080077
:1017900008B50C210148024B984708BD00100E40C7
:1017A0002D17080008B50D210148024B984708BDC8
:1017B00000120E402D17080008B50E210148024BFB
:1017C000984708BD00140E402D170800174A136BE8
:1017D00023F0700318431063936E13F0080F0AD1BF
:1017E0004FF4006311498A6E12F0080F03D1013BD8
:1017F000F9D1012070470D4A136B23F0030343F026
:1018000002031363936E13F0080F0AD14FF40063C1
:1018100006498A6E12F0080F05D1013BF9D101206B
:101820007047002070470020704700BF00060E4040
:10183000C8B9114A136A090289B223F45C1323F070
:10184000030343F45C1343F001030B431362936EF1
:1018500013F0010FFBD0084A136A43F09B7343F463
:1018600080331362704704490B6A044A1A40044BE0
:1018700013430B62704700BF00060E40FCFFC8FE1A
:1018800002003701024B986E00F48030704700BFB1
:1018900000060E404FF00052014B9A62704700BFA5
:1018A00000060E40024B986E00F00200704700BF29
:1018B00000060E404FF44412034BDA611A46936E51
:1018C00013F0400FFBD0704700060E40024AD36968
:1018D00023F48033D361704700060E4000F07F0090
:1018E000054BC3F80C01D3F80C2142F01022C3F8C9
:1018F0000C210020704700BF00060E40000200F4DB
:10190000706040F00100014B9863704700060E4084
:101910002022014B1A60704700060E40034B1A6FDD
:10192000C0F3120010431867704700BF00060E4056
:101930000B4A136F43F4801313670A4A136923F0A9
:1019400004031361BFF34F8F20BF4FF4FA7300BF3E
:10195000013BFCD1024A136A13F0080FFBD0704719
:1019600000060E4000ED00E02DE9F84F431E042B69
:1019700000F23981DFE813F00500050021002100A5
:101980002B019A4A136F23F480131367984A136943
:1019900023F0040313610122964B1A70BFF35F8F8B
:1019A00062B6022804D0BFF34F8F20BFBDE8F88F86
:1019B000BFF34F8F30BFBDE8F88F72B6BFF35F8FB4
:1019C00000228C4B1A7001228B4B1A70874BD3F874
:1019D00020801D6B894AD2F800A002F50072D2F86F
:1019E00000909F6AD3F81CB048F45C1242F00802E1
:1019F0001A6205F00306012E40F29D8025F00301D6
:101A000041F0010119631A46936E13F0080FFBD0E1
:101A100011F0700F08D021F07001744B19631A4651
:101A2000936E13F0080FFBD00446754B9847754B27
:101A300098476E4A936E13F4003FFBD06B4A136ACB
:101A400023F09B7323F4803343F45C131362936E8F
:101A500013F4803FFBD02AF47063684A136029F4C2
:101A6000706302F500721360042C66D0614C012390
:101A70002370BFF35F8F62B6634B984772B6BFF3B4
:101A80005F8F0023237018F0020F61D0574A136A4A
:101A90005E4919405E4B0B431362136A23F45C13D7
:101AA00023F0780343F45C1313625A4B3B40002B42
:101AB0007FD047F000574D4B9F6202221BF4803FBE
:101AC00004D04A4BC3F81CB042F04002022E72D040
:101AD000032E76D045490B6B23F0700305F07000A0
:101AE00003430B638B6E13F0080FFBD0434BC3F81B
:101AF00000A003F50073C3F80090A3F5C0631D6355
:101B000019468B6E13F0080FFBD038498B6E1342C9
:101B1000FCD00022384B1A703F4B1B681BB1984712
:101B200000223D4B1A600122324B1A70BFF35F8FC7
:101B300062B6BDE8F88F29466AE7A2F5C062136A6B
:101B400023F45C1323F0010343F45C1313628DE769
:101B500018F0010FA9D0254B1B6A13F0010F0ED10D
:101B6000224A136A23F45C1323F0030343F45C1347
:101B700043F001031362936E13F0010FFBD01B4B74
:101B80001B6A13F0807F0AD1184A136A43F09B73D3
:101B900043F480331362936E13F4803FFBD0134AF7
:101BA000136A23F45C1323F0780343F45C13136289
:101BB0007BE7002282E70D498B6E13F0020FFBD00A
:101BC00088E70A498B6E13F0400FFBD082E7084A82
:101BD000136943F0040313610122064B1A70BFF32B
:101BE0005F8F62B620BFBDE8F88F00BF00060E40D1
:101BF00000ED00E01C03072054180720000A0E40E7
:101C000095180800CD18080031190800FCFFC8FE1F
:101C1000020037010000FF0758180720024B187810
:101C200080F00100704700BF5418072082B0EFF326
:101C30001083B3FA83F35B09019372B6BFF35F8F2E
:101C400000220C4B1A70019B01210B4A116023B139
:101C5000084B1970BFF35F8F62B60222074B1A6000
:101C6000074A0023136153619381064A137002B03F
:101C7000704700BF1C03072020C20A4060C10A4011
:101C800020190720641807200522034B1A704FF40F
:101C90000022024B1A60704764180720F0C10A4006
:101CA00082B003220F4B1A70EFF31083B3FA83F361
:101CB0005B09019372B6BFF35F8F00220A4B1A7063
:101CC00001980A4901220A60094B1A6008220A6039
:101CD0001A6028B10122044B1A70BFF35F8F62B6FD
:101CE00002B07047641807201C03072060C10A4037
:101CF000F0C10A4008B5024B1B6903B1984708BD03
:101D00002019072030B585B0EFF31083B3FA83F3C1
:101D10005B09019372B6BFF35F8F00224C4B1A70C0
:101D2000019B01214B4A116023B1494B1970BFF34C
:101D30005F8F62B6484B1B78032B57D0474B1B88ED
:101D4000474A9489E41AA4B2C4B9464A11880B449C
:101D50009BB21380424AD2889A424CD0424B1B78A5
:101D6000002B48D13E4B5B69002B61D0984700287F
:101D70005ED00022394B1A80394B9C893F2C57D9B1
:101D80000022394B1A704024354B9A68334B1D881A
:101D9000EFF31083B3FA83F35B09029372B6BFF3D8
:101DA0005F8F00212A4B19700298304B1B6813F08B
:101DB000020F41D144B12A442D4B12F8011B03F804
:101DC000011BD9B2A142F8D3244B1A8814441C80B9
:101DD0000123284A136090321360002836D01A4637
:101DE0001B4B1A70BFF35F8F62B62FE0224B9847F0
:101DF000224B98472AE00422174B1A70EFF3108306
:101E0000B3FA83F35B09039372B6BFF35F8F0022CB
:101E10000F4B1A70039A102316490B6090310B6018
:101E2000A2B101220A4B1A70BFF35F8F62B60DE0B8
:101E300001220D4B1A70A7E728B10122044B1A703A
:101E4000BFF35F8F62B60422034B1A7005B030BD3A
:101E50001C03072020C20A406418072060180720CE
:101E600020190720621807205C18072030C10A409B
:101E70000000182060C10A40F51C08002D1C080055
:101E8000037D13F0010F13D010B50C46037D6FF3E3
:101E900000030375036853B1064951F8221011F489
:101EA000807F18BF42F0800281682046984710BDAD
:101EB000704700BF00C10A40431E03EB43015F4A65
:101EC00002EBC102127D12F0010F00F0B580F0B5F7
:101ED00083B00A46594901EBC202D1689268914227
:101EE00077D0521AB2F5803F92BF17044FF4803278
:101EF0000027534C54F8205015F4807F14D054F828
:101F00002050C5F302150824AC40013C144213D004
:101F100047F0080703EB4304484D05EBC404257D57
:101F20006FF34105257507E054F82050C5F3C1252E
:101F3000012D37D047F01407424C04EB001403EB9B
:101F400043053E4E06EBC5056D6829446160EFF31D
:101F50001081B1FA81F14909019172B6BFF35F8F27
:101F6000002539490D70019DE16811F0100F22D153
:101F700047F02107A76003EB430006EBC001C868E8
:101F80001044C8600A614FF0007000FA03F32F4A52
:101F90009361002D4ED001222B4B1A70BFF35F8F3F
:101FA00062B647E054F82050C5F302150824AC404F
:101FB000A242C1D8BEE72DB10121234A1170BFF35F
:101FC0005F8F62B603EB43021C4901EBC202D1688A
:101FD00091601B4A52F8202012F4807F21D003EB3D
:101FE0004302164901EBC202127D12F0020F18D013
:101FF0000122174B43F82020303B53F8203013F4D4
:10200000803F1CBF134B43F820200122124B43F8A2
:1020100020204FF4805202FA00F0A3F5F873986183
:1020200008E0024603EB43030021044800EBC30031
:102030000A4B984703B0F0BD704700BF68180720EF
:1020400000C10A4000C30A401C03072000C00A4028
:1020500060C10A4090C10A40F0C10A40811E0800D8
:1020600082B0014628BB244B1B781BB9224B197048
:1020700002B07047214B9B7803B9FEE7EFF3108362
:10208000B3FA83F35B09009372B6BFF35F8F00224C
:102090001B4B1A700098194A9378013B93700028E3
:1020A000E4D00122164B1A70BFF35F8F62B6DDE7F2
:1020B000FEE7114B1B78002BD8D1104B9B78FF2BE0
:1020C000F6D0EFF31083B3FA83F35B09019372B692
:1020D000BFF35F8F00220A4B1A700198074A93786A
:1020E000013393700028C1D00122054B1A70BFF351
:1020F0005F8F62B6BAE700BF5D1807201819072086
:102100001C03072010B582B0EFF31083B3FA83F3FA
:102110005B09009372B6BFF35F8F0022514B1A70B8
:10212000009C2820504B9847504B9847504B5022CA
:1021300083F828234FF480725A604FF480204D4B6F
:1021400098474D4BD3F8002822F08072C3F800283E
:10215000D3F8002842F00072C3F80028D3F8002812
:1021600022F08072C3F80028D3F8002842F480528D
:10217000C3F80028D3F8002842F40042C3F800282E
:102180001A6822F480521A601A6822F440621A60B7
:10219000D3F8002822F48042C3F800281A46D2F867
:1021A000043813F4804FFAD00022344853009918B1
:1021B00000EBC101097D134400EBC30301F0FE01F4
:1021C0006FF3820119750132062AEFD12A4B0222E0
:1021D000C3F80828D3F8043813F4006F1CBF264B4B
:1021E000C3F80C28244BD3F8002842F00202C3F8AD
:1021F0000028D3F8002842F48042C3F80028204B7E
:102200001B781BBB01221E4B1A7000221D4B1A703B
:102210001D4BDB78FF2B18D0EFF31083B3FA83F359
:102220005B09019372B6BFF35F8F00220D4B1A70EA
:102230000199154AD3780133D37051B10122094B6A
:102240001A70BFF35F8F62B603E0FEE700200F4B0A
:1022500098472CB10122034B1A70BFF35F8F62B60F
:1022600002B010BD1C030720DD180800150208008D
:1022700000E100E01D19080000C00A4068180720AE
:102280005E1807205D180720181907206120080034
:1022900070B582B0EFF31083B3FA83F35B09019357
:1022A00072B6BFF35F8F0022194B1A70019C012098
:1022B000184B9847184AD2F8003823F48043C2F8E4
:1022C0000038D2F8043813F4804FFAD0124B1A6851
:1022D00022F480721A6008269E6101219961102201
:1022E0009A6104259D61022098619E609D609860BE
:1022F000D9609A60D3F8002842F48042C3F80028DD
:1023000024B1034B1970BFF35F8F62B602B070BD8A
:102310001C0307206120080000C00A4008B50A4BD2
:10232000D3F8002822F48042C3F800281A6842F447
:1023300080721A60D3F8002842F48042C3F8002863
:102340000020024B984708BD00C00A4061200800E9
:102350002DE9F04385B09B4B984720B99A4B5B68B9
:1023600013F0010F11D0984B5B6813F0040F16D0D7
:10237000954B04229A60D3F8043813F4405F0BD0D5
:10238000924B984705B0BDE8F08372B6BFF35F8FFC
:1023900000228F4B1A70F5E78E4B9847F0E78A4B77
:1023A0005B6813F0020F33D1874B5B6813F4805FD7
:1023B00026D0894B10221A6008221A60F03B1B6855
:1023C00013F0040F2AD1854B1B6813F0010F05D0C1
:1023D000834B1B6813F0010F40F085807F4B1B6817
:1023E00013F0020F40F082807C4B1B6813F0080F43
:1023F00040F03281794B1B6813F0100F40F03F81A1
:10240000784E0123704A4FF0007E4FF4805C81E1EA
:1024100002226D4B9A606F4B9847B3E7724B1B7863
:10242000002B41D16D4B1B68C3F30A53082B40D1DD
:102430006E4A6F4B6F4813F8011B02F8011F83426D
:10244000F9D16D4B9847002839D004226B4B1A60A4
:102450006B4B93F90030002B37DB694BDB88002B8B
:102460003ED00022674B1A80674B1A8001215E4BD9
:1024700019701021614B1960EFF31083B3FA83F3E5
:102480005B09019372B6BFF35F8F514B1A70019BCA
:102490005E4A1160002B3FF475AF01224C4B1A705D
:1024A000BFF35F8F62B66DE7594B9847594B98471A
:1024B000B8E7594B98470422504B1A6062E7564BD5
:1024C000984704224D4B1A605CE700234D4A138065
:1024D0004D4A13800222444B1A70504B984751E7E3
:1024E0004F4B98474EE74D4B98474BE73E4B1B7879
:1024F000012B0BD0022B04D0042B02D0464B984763
:1025000001E0434B9847434B98473BE7334B1868F0
:10251000C0F30A503A4B9B893B4A148822189342D5
:10252000BCBF1B1B98B2364B9A6878B1631E1A4425
:102530002F4B13F8011B02F8011FD9B28142F8D3C7
:102540000444A4B2304B1C8040280CD02C4B9C81FE
:102550005B6913B1984700282ED00222274B1A60DE
:102560002F4B98470EE7264BDA88264B1B882344CF
:102570009A42EBDD224B9B89A34253D01F4B022290
:102580001A6010221A60EFF31083B3FA83F35B0929
:10259000029372B6BFF35F8F00210D4B1970029B3F
:1025A0001A490A60002B3FF4EDAE0122084B1A7065
:1025B000BFF35F8F62B6E5E6174B984702220F4BD9
:1025C0001A60DFE61D1C080000C00A402134080024
:1025D0001C030720ED0D080020C20A4030C10A404C
:1025E000C0C10A4034C10A40641807201F190720DF
:1025F00000001820080018202D0E080060C10A40B5
:10260000201907206218072060180720F0C10A402F
:10261000F51C08002D1C0800891C0800051D080079
:10262000A11C0800A14B5B6953B1984770B1A04948
:10263000A04A0B88108803440B80002313809DE779
:102640009D4B984702229D4B1A609BE69A4B9847F8
:1026500002229A4B1A6095E60822984B1A60303B8A
:102660001B6813F0010F7FF48DAE954B1B78032B85
:102670007FF488AE4FF40022924B1A6082E610225B
:102680008E4B1A60303B1B6813F0020F7FF47AAE5A
:102690008B4B1B78012B07D0042B7FF473AE4FF4C8
:1026A0000022884B1A606DE6874B98476AE6874B95
:1026B00003EB0013DA6812F0010F7FF463AE844A73
:1026C0005161DB681B0C08D0824A7C00E51902EBE3
:1026D000C505E968CB1AEB60AB607F4B984751E6C4
:1026E0007E4B012249F80320744949F801204FF438
:1026F000804249F8032007EB47070246002175484E
:1027000000EBC700764B98473CE601330436072BB5
:1027100000F0F880D8B21D465F1EB84614690EFA64
:1027200007F10C4202D054682142C0D111690CFA61
:1027300005F52942E9D04FEA830906F19004D6F85D
:10274000901011F0010F03D0316811F0010FC7D1C3
:10275000216811F4805FD8D0316811F4405FD4D182
:102760004FF480525D4B49F80320A3F508735D6177
:1027700008EB4808574B03EBC80898F814206FF390
:10278000820288F81420574A59F8023023F4007363
:1027900049F802304B4B4FF4002249F803204FF424
:1027A000802249F80320EDE50822494B9A60494D03
:1027B000002401274A4E0134E4B222463946284615
:1027C000B0471835062CF6D1474B9847404B1A684E
:1027D00022F07F021A601A6842F080021A604149B2
:1027E0000A6822F4CB5222F01C0242F030020A6046
:1027F0000A6842F002020A60DA6942F00102DA6114
:10280000EFF31082B2FA82F25209039272B6BFF36A
:102810005F8F0021354A117003992A4A0420106005
:10282000022010604FF480529A6129B101222F4B8F
:102830001A70BFF35F8F62B62D4B9847A2E5244B09
:10284000D3F8002822F48042C3F8002801225A61FC
:1028500010229A61D3F8002842F48042C3F800287D
:102860000020244B9847244B98478BE5184BD3F80E
:10287000043813F0020F3FF485AD154BD3F8002850
:1028800022F48042C3F800280222C3F80828D3F8B3
:10289000002842F48042C3F80028D3F8043813F427
:1028A000006F14BF154B164B98476BE52019072096
:1028B0006218072060180720891C080060C10A40C0
:1028C00064180720F0C10A40A11C080000C30A4098
:1028D00000C00A4068180720B91E080020C20A403C
:1028E000811E080000C10A40A50D08001C03072036
:1028F0002D1C0800612008000934080091220800FE
:102900001D2308001A4B5B6813F0080F7FF44CAFCF
:10291000174B1B6913F0010F04D0154B5B6813F0C4
:10292000010F8CD1124B1B6913F0100F9ED0104B6E
:102930005B6813F0100F99D00D4AD2F8003823F4D9
:102940008043C2F800381346D3F8042812F4804FAD
:1029500003D15A6812F0010FF6D0054B10225A61CC
:1029600001209861034B9847034B98470AE500BF45
:1029700000C00A406120080015340800034BD3F85A
:10298000040810F4405018BF0120704700C00A40EE
:10299000084B1A6822F080021A601A6822F07F023F
:1029A00000F07F0002431A601A6842F080021A6049
:1029B000704700BF00C00A40024B186800F07F005B
:1029C000704700BF00C00A40024B186AC0F3CA003B
:1029D000704700BF00C00A40024B186AC0F30D00E8
:1029E000704700BF00C00A40014B98609981704752
:1029F0002019072000F00F02062A00D9704770B591
:102A00001048C369012101FA02F423EA0403C361F7
:102A100000F5807050F8223023F0020340F8223095
:102A2000561E094C06FA01F5A81904EBC000074B25
:102A30009847354404EBC504237D6FF38203237567
:102A400070BD00BF00C00A4068180720811E080042
:102A500000F00F00024B53F82000C0F3C040704755
:102A6000C0C10A4000F00F03062B5DD8354A52F86A
:102A7000232012F4002F59D110B483B0591E01EB5A
:102A80004104314A02EBC402127D12F0040F4FD10F
:102A900012F0010F50D1EFF31082B2FA82F2520914
:102AA000019272B6BFF35F8F0024284A1470019C14
:102AB00010F0800F18D1264951F8232022F400721B
:102AC00041F823204021234A42F823104FF40021EB
:102AD000903242F82310002C32D001201B4B18708A
:102AE000BFF35F8F62B624E01B4A52F8232012F432
:102AF000405FE0D001EB4101134A02EBC1010A7DC6
:102B000042F004020A754FF48052144941F8232020
:102B100002FA03F3124A936184B101200B4B18703F
:102B2000BFF35F8F62B604E000207047012070475A
:102B3000012003B010BC70470020FAE70120F8E73D
:102B40000120F6E7C0C10A40681807201C030720CF
:102B500000C10A4060C10A4030C10A40F0C10A40C9
:102B600000C00A4000F00F00062851D810B5431EDF
:102B700003EB43012C4A02EBC102127D12F0040F59
:102B800048D00A46284901EBC202117D6FF3820149
:102B9000117582004FF48051244C44F8201081407C
:102BA000A4F508746161224951F8201011F4002F36
:102BB00014D02049515811F0400F06D040201E4932
:102BC00050504FF48020903150504FF4002017495E
:102BD00050501A48115841F40071115003EB430250
:102BE000114901EBC202127D12F0010F01D1012047
:102BF00010BD08465900CA1800EBC202147D6FF3DD
:102C0000000414750B4450F833309847012010BD70
:102C1000002070478200064951F8201011F4002F5F
:102C2000C7D1012010BD00BF6818072020C20A408C
:102C3000C0C10A4030C10A4060C10A4000C10A4018
:102C400000F00F00062864D8F0B583B0364CE56973
:102C5000012484402C425ED0344C54F8204014F4BB
:102C6000002F5BD1441E04EB4406314D05EBC60535
:102C70002D7D15F0040F53D1EFF31085B5FA85F5CE
:102C80006D09019572B6BFF35F8F0026294D2E7036
:102C9000019F04EB4405264E06EBC5052D7D15F07E
:102CA000010F09D0002F3DD00122224B1A70BFF333
:102CB0005F8F62B600202FE004EB44051C4E06EB4C
:102CC000C5052E7D46F001062E752FB10126194D42
:102CD0002E70BFF35F8F62B6154F04EB4405ED0015
:102CE0007E197260B3600022F2603261089A7A51F4
:102CF00011B9B3FA83F1490904EB44040C4B03EB1B
:102D0000C404237D61F3410323750B4B98470120D5
:102D100002E000207047002003B0F0BD0020FBE778
:102D20000020F9E70020F7E700C00A40C0C10A40D0
:102D3000681807201C030720B91E08002DE9F04F72
:102D400083B000F00F04062C00F2DD80734BDD69C8
:102D50000123A3402B4040F0DB8001F00305012D4F
:102D600020D0002D00F0D6804FF0000E6C4E06EB08
:102D7000840556F8247027F4CB5727F01C07C902A6
:102D800001F4C05140B20028B8BF4FF48073A2F5DF
:102D9000806080B2B0F57C4F07D3082A24D9520056
:102DA000013A04E04FF0010EE0E740F2FF72B2FAA0
:102DB00082F241EA8E011943C2F11C0341EA031376
:102DC00023F4D06323F00303DB04DB0C3B4346F81E
:102DD00024300127A740BFB2052C1CD8514A062336
:102DE0004E484FF0010E06E00F22E0E7013B043AA7
:102DF000D9B28C420FD2C6690EFA03F10E42F5D059
:102E00000F43BFB2C66926EA0101C161116821F012
:102E100002011160EAE704EB4403434E06EBC306EC
:102E2000DFF80491DFF8F480DFF800A11DE001EB8A
:102E300041033D4A52F83340002C6DD02B6813F407
:102E4000807F18BF40F0800001EB4101364B03EB5F
:102E5000C1010246C9680120A047002354E00134A3
:102E600004351836E3B2062B4BD8E0B247FA04F328
:102E700013F0010FF3D0611E01EB410309EBC30313
:102E800093F814E00EF001026FF3000E83F814E0E3
:102E90002B6843F002032B60D8F81CE00123A34009
:102EA00043EA0E03C8F81C302B6B13F4802FBED0FE
:102EB0002B6843F400732B60002AD0D056F80C3CEA
:102EC00056F8082C9A1A46F80C2C2B6813F4807FBD
:102ED00018BF40F0800056F810BC56F814CC01EB37
:102EE000410109EBC101097D56F8183C0093ABEB99
:102EF00002036244C1F34001D04703460028AED12B
:102F000002E0012300E00023184603B0BDE8F08F83
:102F10000023F9E70023F7E70023F5E700C00A40A4
:102F200000C10A4018C10A4068180720412C080057
:102F300070B500F00F02541E4FF00073A340164905
:102F40004B61164B03EB021300259D604FF4805339
:102F500093404B6110F0800F08D104EB4404012131
:102F60000F4800EBC4000F4B984770BD93000E480C
:102F700018440E4D1D444FF4005601F5E0711944FC
:102F800004E02E600B6813F4005FFBD1036813F4B8
:102F9000405FF6D1E1E700BF00C00A4000C30A402D
:102FA00068180720811E080030C10A40F0C10A409D
:102FB000054A136823F4406343F400631360136805
:102FC00043F400531360704700C00A40054A136879
:102FD00023F4406343F400631360136843F48043B5
:102FE0001360704700C00A40034A136823F440632B
:102FF00043F400631360704700C00A4030B48EB0E1
:103000006C461F4D0FCD0FC40FCD0FC40FCD0FC495
:1030100095E8030044F8040B21701A4AD36923F0A1
:103020000103D36118490B6823F4CB5323F01C032D
:1030300043F4895343F010030B600B6843F0020321
:103040000B60D36943F00103D361136823F4406339
:1030500043F400631360136843F4004313600B4AA6
:103060006B460DF1350013F8011B02F8011F834276
:10307000F9D14FF48042064B1A600EB030BC704755
:103080000439080000C00A4000C10A40FFFF1720B1
:1030900020C20A4010B40B01934214D9C9004B0856
:1030A00003EBC202B2FBF1F2D3085C1E4FF6FE71D5
:1030B0008C4201D9012017E0416841F400214160B0
:1030C0000CE0012010E0590801EBC202B2FBF3F260
:1030D000D3085C1E4FF6FE718C42F2D8120402F443
:1030E000E0221A430262002010BC7047084BC0F86F
:1030F000E430002343604362836288230360242317
:1031000003604FF4807303604FF400230360704743
:103110000041535570B505460C4616460F4B98476F
:1031200000220F4B1A60A4B13246216828460D4B8D
:103130009847024678B96368A1680B4321690B433D
:10314000E1680B4306490B6069680B436B601046EE
:1031500070BD0122FBE70122F9E700BFED30080056
:10316000F81807209530080040230360704780233B
:103170000360704710230360704724230360704787
:1031800081607047C160704700697047406970474F
:10319000436913F0020F1DBFC1F30801C161002094
:1031A00001207047436913F0010F05D08369C3F311
:1031B00008030B600020704701207047FEE7000005
:1031C00008B51C4B1C4A9A4210D01C4B194A9A4213
:1031D0000CD2013B9B1A23F003030433134416491A
:1031E00051F8040B42F8040B9A42F9D1144B154ADA
:1031F0009A420AD2013B9B1A23F00303043313447F
:10320000002142F8041B9342FBD10F4B23F0604294
:1032100022F07F020D498A6003F16043B3F5801FFD
:1032200003D28B6843F000538B60094B9847094BDE
:103230009847FEE70000072064390800540707207C
:103240005C190720540707200000080000ED00E08B
:1032500075370800713308003D4B1B6B03F0030307
:10326000032B0ED8DFE803F0021C3838394B5B69BA
:1032700013F0800F14BF4FF400424FF4FA42364B64
:103280001A60334B1B6B03F07003702B57D0304B1D
:103290001A6B3149C2F302120B68D3400B607047BE
:1032A0002B4B1B6A13F0807F03D02C4A2A4B1A60E9
:1032B000E7E72B4A284B1A60254B1B6A03F0700383
:1032C000102B05D0202BDCD1244A234B1A60D8E7E1
:1032D000244A214B1A60D4E71D4B1B6A13F0807FF0
:1032E0000CD01E4A1C4B1A60194B1B6B03F00303D6
:1032F000022B16D01C4A184B1A60C2E7184A164B0C
:103300001A60134B1B6A03F07003102B05D0202B9F
:10331000EAD1124A104B1A60E6E7124A0E4B1A60C5
:10332000E2E70B4A916A926A0B48C1F30A410368CB
:1033300001FB0333D2B2B3FBF2F30360A1E7064A09
:1033400013680A49A1FB03135B081360704700BFB1
:1033500000060E40101A0E4020030720001BB70085
:1033600000093D0000127A00001C4E0EABAAAAAA6A
:1033700080B501211C4B1970BFF35F8F62B61B4BE8
:1033800000221A705A709A70DA701A715971184BBB
:103390009847184B9847184B9847184B9847184B25
:1033A0009847114C00252F46104EDFF8588004E056
:1033B00001232370BFF35F8F62B672B6BFF35F8FD6
:1033C00027703378002BF3D1084B28460130C0B268
:1033D00013F8012F002AF9D00028E9D072B6BFF304
:1033E0005F8F2570C047E8E71C03072018190720E6
:1033F00035020800D5130800610108007D010800AE
:10340000990D08006919080008B5014B984708BDD7
:103410007D01080008B5014B984708BD95010800DB
:1034200008B5044B1B7803B908BD034B9847034B01
:103430009847F9E7FC180720C9290800F10108009E
:1034400010B50124024B1C70024B9847204610BD5A
:10345000FC180720B536080008B50022024B1A7088
:10346000024B984708BD00BFFC18072045370800ED
:1034700008B511B9024B984708BD024B984708BDE3
:10348000C5010800A501080070B582B0064678B1F4
:103490000128284C18BF00242046274B9847054692
:1034A00010F0010F06D115F0020F2AD102B070BD45
:1034B000224CF1E7224B984701A92046214B98471F
:1034C00070B915F4E07F0BD130461F4B984798B97F
:1034D00030461E4B98471E4B98471E4B9847E2E7D5
:1034E00020461D4B984720461C4B984730461C4BA6
:1034F00098471C4B9847E7E7019930461A4B984785
:10350000EBE73046194B984748B92046184B984787
:1035100002212046174B9847174B9847C6E7174B91
:1035200098473046164B984701462046154B98471A
:10353000BCE700BF008009408D31080000C0094091
:10354000E9010800A53108003D0B080069070800E3
:10355000EF010800EB0108007B310800753108001D
:1035600059070800ED010800510B0800D1070800B9
:103570006F31080085310800E7010800E501080007
:10358000E50908009131080008B50020014B984773
:1035900008BD00BF8934080008B50120014B9847D9
:1035A00008BD00BF8934080010B550B101280A4C8D
:1035B00018BF00242046094B984710F0010F02D194
:1035C00010BD074CF6E72046064B984702212046DF
:1035D000054B9847F4E700BF008009408931080097
:1035E00000C00940693108008131080070B598B108
:1035F0000128264C18BF00240B79012B0ED0022B7A
:103600000CBF4FF4005000204B79013B032B11D825
:10361000DFE803F007130A0D1D4CEDE74FF480506F
:10362000F2E74FF4007209E04FF4C06206E04FF495
:10363000806203E04FF4006200E000228B795D1F9E
:10364000022D94BF2B46C0230968124D29606B6080
:10365000AA60E8604FF000532B6120460E4B98475C
:1036600006464FF0FF3120460C4B98470C4A29463E
:1036700020460C4B984720460B4B984720460B4B57
:103680009847314620460A4B984770BD0080094054
:1036900000C0094000190720893108008531080061
:1036A00000BD0105153108006931080075310800B9
:1036B0008131080010B5F8B1012811D1174B302223
:1036C00083F811234FF400321A601120144B9847ED
:1036D000144C154A15492046154B984708B110BDA2
:1036E00010BD2046134B98472046134B98470321A3
:1036F0002046124B984710BD084B302283F8122306
:103700004FF48021196083F811234FF400321A60BE
:103710001220034B98470A4CDBE700BF00E100E0B2
:10372000DD1808000080094000BD010500190720D0
:103730001531080069310800753108008131080031
:1037400000C0094008B510B1012806D008BD4FF0EF
:10375000FF310548054B984708BD4FF0FF3104483D
:10376000024B9847F2E700BF00C0094085310800CE
:103770000080094070B50F4E0F4D761BB61018BF74
:10378000002405D0013455F8043B9847A642F9D1EE
:103790000A4E0B4D00F0D4F8761BB61018BF00246B
:1037A00006D0013455F8043B9847A642F9D170BDC4
:1037B00070BD00BF4C3908004C390800543908006E
:1037C0004C390800024B13B1024800F005B87047AD
:1037D00000000000E5370800002301461A4618469D
:1037E00000F01EB838B50A4C0A4D641BA4100AD06C
:1037F00004F18043013B05EB8305013C55F8043996
:103800009847002CF9D1BDE8384000F0A3B800BFBC
:103810006439080060390800704700BF704700BF76
:103820002DE9F8432C4D0646286898460F469146E8
:10383000FFF7F2FF294B1C68D4F84831002B3ED02B
:103840005A681F2A1CDC02F1010E76B1012103EB3C
:103850008204C4F88890D3F8880191400843022E6E
:10386000C3F88801C4F8088123D00232C3F804E009
:10387000286843F82270FFF7D1FF0020BDE8F883E5
:10388000174B0BB34FF4C870AFF300800346D8B1A9
:103890000020D4F848114FF0010E5860196002461C
:1038A000C4F84831C3F88801C3F88C01002EDCD07D
:1038B000CCE7D3F88C010143C3F88C11D5E704F5AC
:1038C000A673C4F84831BBE72868FFF7A7FF4FF09D
:1038D000FF30BDE8F88300BF500707203C390800DF
:1038E000000000003B000000000000005500000048
:1038F000000000005600000000000000570000001B
:1039000001000000000000000000000000AAAAAAB8
:10391000AAAAAAAAAAEEEEEEEEEEEEEEEEFEFFFFE9
:10392000FFFFFFFFFFFFFFFFFF7FBFDFEFF7FBFDA5
:10393000FC7EBFDFEFF7FBFD7E00000028030720C1
:10394000F8B500BFF8BC08BC9E467047C5370800F4
:1039500019010800F8B500BFF8BC08BC9E467047C6
:04396000F500080066
:103964004FF48063204A136002F5007213601F4B0A
:103974001B6A13F0807F07D11D4A1C4B1A621A463A
:10398400936E13F0010FFBD01A4A184B1A621A46B1
:10399400936E13F4803FFBD0144A136B23F003039C
:1039A40043F001031363936E13F0080FFBD0124A24
:1039B4000E4B9A621A46936E13F0020FFBD011223B
:1039C4000A4B1A631A46936E13F0080FFBD01222A7
:1039D400064B1A631A46936E13F0080FFBD0074A7E
:1039E400074B1A60704700BF000A0E4000060E40E5
:1039F4000908370009083701013F0D2000BD010502
:103A0400200307201B4B984215D91B4B984219D908
:103A14001A4B98421ED91A4B984223D9194B9842F3
:103A240094BF4FF480634FF4A063174A136002F508
:103A34000072136070470023134A136002F500728A
:103A4400136070474FF480730F4A136002F50072DD
:103A5400136070474FF400730B4A136002F5007251
:103A6400136070474FF44073074A136002F5007205
:103A740013607047BFEA21017FF0FA02FF8FD00381
:103A8400FFB3C4047F4A5D05000A0E40D902080052
:103A940099020800A9060800AD0208000000000011
:103AA400C108080081060800A9020800AD02080048
:103AB400350508009C0207206C0107209C020720A2
:103AC400B002072074010720000000007C010720D9
:103AD400BC0207200C020720BC02072009028D004B
:103AE400040100C032080B000202020100090400B4
:103AF4000001020201000524001001042402020551
:103B04002406000105240103010705830340001076
:103B140009040100020A00000007058102400000B8
:103B240007050202400000080B020202020100091C
:103B34000402000102020100052400100104240211
:103B44000205240602030524010303070586034036
:103B5400001009040300020A000000070584024063
:103B640000000705050240000000000009028D0066
:103B7400040100C032080B00020202010009040023
:103B840000010202010005240010010424020205C0
:103B940024060001052401030107058303400010E6
:103BA40009040100020A0000000705810200020066
:103BB40007050202000200080B02020202010009CA
:103BC4000402000102020100052400100104240281
:103BD40002052406020305240103030705860340A6
:103BE400001009040300020A000000070584020013
:103BF4000200070505020002000000001201000295
:103C040000000040EB032524000101020001000034
:103C14000A06000200000040010000002C010720F9
:103C2400400107202C010720400107200003000069
:103C34000000000000000000000000000000000080
:103C44000000000000000000000000000000000070
:103C540000000000040309044C656861476F766E38
:103C6400614C657065686100434443204D616E6337
:103C74006865737465722055415254000100000058
:103C840000093D00000000000000000014060720A9
:103C94007C060720E4060720000000000000000066
:103CA4000000000000000000000000000000000010
:103CB4000000000000000000000000000000000000
:103CC40000000000000000000000000000000000F0
:103CD40000000000000000000000000000000000E0
:103CE40000000000000000000000000000000000D0
:103CF40000000000000000000000000000000000C0
:103D040000000000000000000000000000000000AF
:103D1400000000000000000000000000000000009F
:103D2400000000000000000000000000000000008F
:103D340001000000000000000E33CDAB34126DE62C
:103D4400ECDE05000B000000000000000000000095
:103D5400000000000000000000000000000000005F
:103D6400000000000000000000000000000000004F
:103D7400000000000000000000000000000000003F
:103D8400000000000000000000000000000000002F
:0440B4003819072090
:04000003800031C187
:00000001FF
